{
	"data": {
		"bytecode": {
			"linkReferences": {},
			"object": "608060405234801561000f575f80fd5b5060405161433638038061433683398181016040528101906100319190610389565b82846100428161019c60201b60201c565b508060035f6101000a81548173ffffffffffffffffffffffffffffffffffffffff021916908373ffffffffffffffffffffffffffffffffffffffff1602179055508073ffffffffffffffffffffffffffffffffffffffff165f73ffffffffffffffffffffffffffffffffffffffff167f8be0079c531659141344cd1fd0a4f28419497f9722a3daafe3b4186f6b6457e060405160405180910390a3505f73ffffffffffffffffffffffffffffffffffffffff168273ffffffffffffffffffffffffffffffffffffffff160361014c576040517f08c379a000000000000000000000000000000000000000000000000000000000815260040161014390610463565b60405180910390fd5b8160045f6101000a81548173ffffffffffffffffffffffffffffffffffffffff021916908373ffffffffffffffffffffffffffffffffffffffff1602179055508060058190555050505050610754565b80600290816101ab9190610685565b5050565b5f604051905090565b5f80fd5b5f80fd5b5f80fd5b5f80fd5b5f601f19601f8301169050919050565b7f4e487b71000000000000000000000000000000000000000000000000000000005f52604160045260245ffd5b61020e826101c8565b810181811067ffffffffffffffff8211171561022d5761022c6101d8565b5b80604052505050565b5f61023f6101af565b905061024b8282610205565b919050565b5f67ffffffffffffffff82111561026a576102696101d8565b5b610273826101c8565b9050602081019050919050565b8281835e5f83830152505050565b5f6102a061029b84610250565b610236565b9050828152602081018484840111156102bc576102bb6101c4565b5b6102c7848285610280565b509392505050565b5f82601f8301126102e3576102e26101c0565b5b81516102f384826020860161028e565b91505092915050565b5f73ffffffffffffffffffffffffffffffffffffffff82169050919050565b5f610325826102fc565b9050919050565b6103358161031b565b811461033f575f80fd5b50565b5f815190506103508161032c565b92915050565b5f819050919050565b61036881610356565b8114610372575f80fd5b50565b5f815190506103838161035f565b92915050565b5f805f80608085870312156103a1576103a06101b8565b5b5f85015167ffffffffffffffff8111156103be576103bd6101bc565b5b6103ca878288016102cf565b94505060206103db87828801610342565b93505060406103ec87828801610342565b92505060606103fd87828801610375565b91505092959194509250565b5f82825260208201905092915050565b7f496e76616c696420746f6b656e206164647265737300000000000000000000005f82015250565b5f61044d601583610409565b915061045882610419565b602082019050919050565b5f6020820190508181035f83015261047a81610441565b9050919050565b5f81519050919050565b7f4e487b71000000000000000000000000000000000000000000000000000000005f52602260045260245ffd5b5f60028204905060018216806104cf57607f821691505b6020821081036104e2576104e161048b565b5b50919050565b5f819050815f5260205f209050919050565b5f6020601f8301049050919050565b5f82821b905092915050565b5f600883026105447fffffffffffffffffffffffffffffffffffffffffffffffffffffffffffffffff82610509565b61054e8683610509565b95508019841693508086168417925050509392505050565b5f819050919050565b5f61058961058461057f84610356565b610566565b610356565b9050919050565b5f819050919050565b6105a28361056f565b6105b66105ae82610590565b848454610515565b825550505050565b5f90565b6105ca6105be565b6105d5818484610599565b505050565b5b818110156105f8576105ed5f826105c2565b6001810190506105db565b5050565b601f82111561063d5761060e816104e8565b610617846104fa565b81016020851015610626578190505b61063a610632856104fa565b8301826105da565b50505b505050565b5f82821c905092915050565b5f61065d5f1984600802610642565b1980831691505092915050565b5f610675838361064e565b9150826002028217905092915050565b61068e82610481565b67ffffffffffffffff8111156106a7576106a66101d8565b5b6106b182546104b8565b6106bc8282856105fc565b5f60209050601f8311600181146106ed575f84156106db578287015190505b6106e5858261066a565b86555061074c565b601f1984166106fb866104e8565b5f5b82811015610722578489015182556001820191506020850194506020810190506106fd565b8683101561073f578489015161073b601f89168261064e565b8355505b6001600288020188555050505b505050505050565b613bd5806107615f395ff3fe608060405260043610610137575f3560e01c80637136982b116100aa578063af82b1071161006e578063af82b107146103f8578063e985e9c514610422578063f242432a1461045e578063f2fde38b14610486578063f5298aca146104ae578063f7c618c1146104d65761013e565b80637136982b1461033e5780638aee8127146103685780638da5cb5b146103905780639ab1b484146103ba578063a22cb465146103d05761013e565b80632eb2c2d6116100fc5780632eb2c2d614610248578063370243dc1461027057806346860698146102865780634e1273f4146102ae5780634ffd4eed146102ea5780636ef25c3a146103145761013e565b8062fdd58e1461014257806301ffc9a71461017e5780630e89341c146101ba578063156e29f6146101f657806322e127201461021e5761013e565b3661013e57005b5f80fd5b34801561014d575f80fd5b5061016860048036038101906101639190612b67565b610500565b6040516101759190612bb4565b60405180910390f35b348015610189575f80fd5b506101a4600480360381019061019f9190612c22565b610555565b6040516101b19190612c67565b60405180910390f35b3480156101c5575f80fd5b506101e060048036038101906101db9190612c80565b610636565b6040516101ed9190612d1b565b60405180910390f35b348015610201575f80fd5b5061021c60048036038101906102179190612d3b565b610667565b005b348015610229575f80fd5b50610232610809565b60405161023f9190612bb4565b60405180910390f35b348015610253575f80fd5b5061026e60048036038101906102699190612f7b565b61080f565b005b34801561027b575f80fd5b506102846108b6565b005b348015610291575f80fd5b506102ac60048036038101906102a79190612c80565b610a35565b005b3480156102b9575f80fd5b506102d460048036038101906102cf9190613106565b610b05565b6040516102e19190613233565b60405180910390f35b3480156102f5575f80fd5b506102fe610c0c565b60405161030b9190612bb4565b60405180910390f35b34801561031f575f80fd5b50610328610c11565b6040516103359190612bb4565b60405180910390f35b348015610349575f80fd5b50610352610c17565b60405161035f9190612bb4565b60405180910390f35b348015610373575f80fd5b5061038e60048036038101906103899190613253565b610c23565b005b34801561039b575f80fd5b506103a4610da6565b6040516103b1919061328d565b60405180910390f35b3480156103c5575f80fd5b506103ce610dcb565b005b3480156103db575f80fd5b506103f660048036038101906103f191906132d0565b611265565b005b348015610403575f80fd5b5061040c61127b565b6040516104199190612bb4565b60405180910390f35b34801561042d575f80fd5b506104486004803603810190610443919061330e565b611280565b6040516104559190612c67565b60405180910390f35b348015610469575f80fd5b50610484600480360381019061047f919061334c565b61130e565b005b348015610491575f80fd5b506104ac60048036038101906104a79190613253565b6113b5565b005b3480156104b9575f80fd5b506104d460048036038101906104cf9190612d3b565b6114e1565b005b3480156104e1575f80fd5b506104ea611580565b6040516104f7919061328d565b60405180910390f35b5f805f8381526020019081526020015f205f8473ffffffffffffffffffffffffffffffffffffffff1673ffffffffffffffffffffffffffffffffffffffff1681526020019081526020015f2054905092915050565b5f7fd9b67a26000000000000000000000000000000000000000000000000000000007bffffffffffffffffffffffffffffffffffffffffffffffffffffffff1916827bffffffffffffffffffffffffffffffffffffffffffffffffffffffff1916148061061f57507f0e89341c000000000000000000000000000000000000000000000000000000007bffffffffffffffffffffffffffffffffffffffffffffffffffffffff1916827bffffffffffffffffffffffffffffffffffffffffffffffffffffffff1916145b8061062f575061062e826115a5565b5b9050919050565b60606106418261160e565b6040516020016106519190613463565b6040516020818303038152906040529050919050565b60035f9054906101000a900473ffffffffffffffffffffffffffffffffffffffff1673ffffffffffffffffffffffffffffffffffffffff163373ffffffffffffffffffffffffffffffffffffffff16146106f6576040517f08c379a00000000000000000000000000000000000000000000000000000000081526004016106ed906134ce565b60405180910390fd5b60018214806107055750600282145b610744576040517f08c379a000000000000000000000000000000000000000000000000000000000815260040161073b90613536565b60405180910390fd5b60028214801561079b575060065f8473ffffffffffffffffffffffffffffffffffffffff1673ffffffffffffffffffffffffffffffffffffffff1681526020019081526020015f205f9054906101000a900460ff16155b156107ea57612710600780549050106107e9576040517f08c379a00000000000000000000000000000000000000000000000000000000081526004016107e09061359e565b60405180910390fd5b5b61080483838360405180602001604052805f8152506116d8565b505050565b61271081565b5f61081861176d565b90508073ffffffffffffffffffffffffffffffffffffffff168673ffffffffffffffffffffffffffffffffffffffff161415801561085d575061085b8682611280565b155b156108a15780866040517fe237d9220000000000000000000000000000000000000000000000000000000081526004016108989291906135bc565b60405180910390fd5b6108ae8686868686611774565b505050505050565b60035f9054906101000a900473ffffffffffffffffffffffffffffffffffffffff1673ffffffffffffffffffffffffffffffffffffffff163373ffffffffffffffffffffffffffffffffffffffff1614610945576040517f08c379a000000000000000000000000000000000000000000000000000000000815260040161093c906134ce565b60405180910390fd5b5f60045f9054906101000a900473ffffffffffffffffffffffffffffffffffffffff1690505f8173ffffffffffffffffffffffffffffffffffffffff166370a08231306040518263ffffffff1660e01b81526004016109a4919061328d565b602060405180830381865afa1580156109bf573d5f803e3d5ffd5b505050506040513d601f19601f820116820180604052508101906109e391906135f7565b9050610a3160035f9054906101000a900473ffffffffffffffffffffffffffffffffffffffff16828473ffffffffffffffffffffffffffffffffffffffff166118689092919063ffffffff16565b5050565b60035f9054906101000a900473ffffffffffffffffffffffffffffffffffffffff1673ffffffffffffffffffffffffffffffffffffffff163373ffffffffffffffffffffffffffffffffffffffff1614610ac4576040517f08c379a0000000000000000000000000000000000000000000000000000000008152600401610abb906134ce565b60405180910390fd5b806005819055507f803bee7e92bbc6ae7a1551f9f4ed3e31a8ea8df32e93332f41b0028f1091f9c381604051610afa9190612bb4565b60405180910390a150565b60608151835114610b5157815183516040517f5b059991000000000000000000000000000000000000000000000000000000008152600401610b48929190613622565b60405180910390fd5b5f835167ffffffffffffffff811115610b6d57610b6c612d8f565b5b604051908082528060200260200182016040528015610b9b5781602001602082028036833780820191505090505b5090505f5b8451811015610c0157610bd7610bbf82876118e790919063ffffffff16565b610bd283876118fa90919063ffffffff16565b610500565b828281518110610bea57610be9613649565b5b602002602001018181525050806001019050610ba0565b508091505092915050565b600281565b60055481565b5f600780549050905090565b60035f9054906101000a900473ffffffffffffffffffffffffffffffffffffffff1673ffffffffffffffffffffffffffffffffffffffff163373ffffffffffffffffffffffffffffffffffffffff1614610cb2576040517f08c379a0000000000000000000000000000000000000000000000000000000008152600401610ca9906134ce565b60405180910390fd5b5f73ffffffffffffffffffffffffffffffffffffffff168173ffffffffffffffffffffffffffffffffffffffff1603610d20576040517f08c379a0000000000000000000000000000000000000000000000000000000008152600401610d17906136c0565b60405180910390fd5b8060045f6101000a81548173ffffffffffffffffffffffffffffffffffffffff021916908373ffffffffffffffffffffffffffffffffffffffff1602179055508073ffffffffffffffffffffffffffffffffffffffff167fb74d956cf6ec7842d08ebf0ab19ec03a88c1efd4a50ea4349d30f9c4ce512e9860405160405180910390a250565b60035f9054906101000a900473ffffffffffffffffffffffffffffffffffffffff1681565b60035f9054906101000a900473ffffffffffffffffffffffffffffffffffffffff1673ffffffffffffffffffffffffffffffffffffffff163373ffffffffffffffffffffffffffffffffffffffff1614610e5a576040517f08c379a0000000000000000000000000000000000000000000000000000000008152600401610e51906134ce565b60405180910390fd5b5f60045f9054906101000a900473ffffffffffffffffffffffffffffffffffffffff1690505f8173ffffffffffffffffffffffffffffffffffffffff166370a08231306040518263ffffffff1660e01b8152600401610eb9919061328d565b602060405180830381865afa158015610ed4573d5f803e3d5ffd5b505050506040513d601f19601f82011682018060405250810190610ef891906135f7565b90505f8111610f3c576040517f08c379a0000000000000000000000000000000000000000000000000000000008152600401610f339061374e565b60405180910390fd5b5f60078054905090505f808267ffffffffffffffff811115610f6157610f60612d8f565b5b604051908082528060200260200182016040528015610f8f5781602001602082028036833780820191505090505b5090505f8367ffffffffffffffff811115610fad57610fac612d8f565b5b604051908082528060200260200182016040528015610fdb5781602001602082028036833780820191505090505b5090505f805b858110156110e5575f60078281548110610ffe57610ffd613649565b5b905f5260205f20015f9054906101000a900473ffffffffffffffffffffffffffffffffffffffff1690505f611034826002610500565b90505f8111156110d6578186888151811061105257611051613649565b5b602002602001019073ffffffffffffffffffffffffffffffffffffffff16908173ffffffffffffffffffffffffffffffffffffffff1681525050808588815181106110a05761109f613649565b5b602002602001018181525050600554816110ba9190613799565b846110c591906137da565b935086806110d29061380d565b9750505b50508080600101915050610fe1565b505f8411611128576040517f08c379a000000000000000000000000000000000000000000000000000000000815260040161111f9061389e565b60405180910390fd5b8086101561116b576040517f08c379a000000000000000000000000000000000000000000000000000000000815260040161116290613906565b60405180910390fd5b5f5b8481101561125b575f60055484838151811061118c5761118b613649565b5b602002602001015161119e9190613799565b90506111e58583815181106111b6576111b5613649565b5b6020026020010151828b73ffffffffffffffffffffffffffffffffffffffff166118689092919063ffffffff16565b8482815181106111f8576111f7613649565b5b602002602001015173ffffffffffffffffffffffffffffffffffffffff167f16b0da2ffcb90c6723317bd637d9aad7f04711f42bbe0ac0918ebe10f1f9001c826040516112459190612bb4565b60405180910390a250808060010191505061116d565b5050505050505050565b61127761127061176d565b838361190d565b5050565b600181565b5f60015f8473ffffffffffffffffffffffffffffffffffffffff1673ffffffffffffffffffffffffffffffffffffffff1681526020019081526020015f205f8373ffffffffffffffffffffffffffffffffffffffff1673ffffffffffffffffffffffffffffffffffffffff1681526020019081526020015f205f9054906101000a900460ff16905092915050565b5f61131761176d565b90508073ffffffffffffffffffffffffffffffffffffffff168673ffffffffffffffffffffffffffffffffffffffff161415801561135c575061135a8682611280565b155b156113a05780866040517fe237d9220000000000000000000000000000000000000000000000000000000081526004016113979291906135bc565b60405180910390fd5b6113ad8686868686611a76565b505050505050565b60035f9054906101000a900473ffffffffffffffffffffffffffffffffffffffff1673ffffffffffffffffffffffffffffffffffffffff163373ffffffffffffffffffffffffffffffffffffffff1614611444576040517f08c379a000000000000000000000000000000000000000000000000000000000815260040161143b906134ce565b60405180910390fd5b8060035f6101000a81548173ffffffffffffffffffffffffffffffffffffffff021916908373ffffffffffffffffffffffffffffffffffffffff1602179055508073ffffffffffffffffffffffffffffffffffffffff163373ffffffffffffffffffffffffffffffffffffffff167f8be0079c531659141344cd1fd0a4f28419497f9722a3daafe3b4186f6b6457e060405160405180910390a350565b60035f9054906101000a900473ffffffffffffffffffffffffffffffffffffffff1673ffffffffffffffffffffffffffffffffffffffff163373ffffffffffffffffffffffffffffffffffffffff1614611570576040517f08c379a0000000000000000000000000000000000000000000000000000000008152600401611567906134ce565b60405180910390fd5b61157b838383611b7c565b505050565b60045f9054906101000a900473ffffffffffffffffffffffffffffffffffffffff1681565b5f7f01ffc9a7000000000000000000000000000000000000000000000000000000007bffffffffffffffffffffffffffffffffffffffffffffffffffffffff1916827bffffffffffffffffffffffffffffffffffffffffffffffffffffffff1916149050919050565b60605f600161161c84611c1e565b0190505f8167ffffffffffffffff81111561163a57611639612d8f565b5b6040519080825280601f01601f19166020018201604052801561166c5781602001600182028036833780820191505090505b5090505f82602001820190505b6001156116cd578080600190039150507f3031323334353637383961626364656600000000000000000000000000000000600a86061a8153600a85816116c2576116c1613924565b5b0494505f8503611679575b819350505050919050565b5f73ffffffffffffffffffffffffffffffffffffffff168473ffffffffffffffffffffffffffffffffffffffff1603611748575f6040517f57f447ce00000000000000000000000000000000000000000000000000000000815260040161173f919061328d565b60405180910390fd5b5f806117548585611d6f565b915091506117655f87848487611d9f565b505050505050565b5f33905090565b5f73ffffffffffffffffffffffffffffffffffffffff168473ffffffffffffffffffffffffffffffffffffffff16036117e4575f6040517f57f447ce0000000000000000000000000000000000000000000000000000000081526004016117db919061328d565b60405180910390fd5b5f73ffffffffffffffffffffffffffffffffffffffff168573ffffffffffffffffffffffffffffffffffffffff1603611854575f6040517f01a8351400000000000000000000000000000000000000000000000000000000815260040161184b919061328d565b60405180910390fd5b6118618585858585611d9f565b5050505050565b6118e2838473ffffffffffffffffffffffffffffffffffffffff1663a9059cbb858560405160240161189b929190613951565b604051602081830303815290604052915060e01b6020820180517bffffffffffffffffffffffffffffffffffffffffffffffffffffffff8381831617835250505050611e4b565b505050565b5f60208202602084010151905092915050565b5f60208202602084010151905092915050565b5f73ffffffffffffffffffffffffffffffffffffffff168273ffffffffffffffffffffffffffffffffffffffff160361197d575f6040517fced3e100000000000000000000000000000000000000000000000000000000008152600401611974919061328d565b60405180910390fd5b8060015f8573ffffffffffffffffffffffffffffffffffffffff1673ffffffffffffffffffffffffffffffffffffffff1681526020019081526020015f205f8473ffffffffffffffffffffffffffffffffffffffff1673ffffffffffffffffffffffffffffffffffffffff1681526020019081526020015f205f6101000a81548160ff0219169083151502179055508173ffffffffffffffffffffffffffffffffffffffff168373ffffffffffffffffffffffffffffffffffffffff167f17307eab39ab6107e8899845ad3d59bd9653f200f220920489ca2b5937696c3183604051611a699190612c67565b60405180910390a3505050565b5f73ffffffffffffffffffffffffffffffffffffffff168473ffffffffffffffffffffffffffffffffffffffff1603611ae6575f6040517f57f447ce000000000000000000000000000000000000000000000000000000008152600401611add919061328d565b60405180910390fd5b5f73ffffffffffffffffffffffffffffffffffffffff168573ffffffffffffffffffffffffffffffffffffffff1603611b56575f6040517f01a83514000000000000000000000000000000000000000000000000000000008152600401611b4d919061328d565b60405180910390fd5b5f80611b628585611d6f565b91509150611b738787848487611d9f565b50505050505050565b5f73ffffffffffffffffffffffffffffffffffffffff168373ffffffffffffffffffffffffffffffffffffffff1603611bec575f6040517f01a83514000000000000000000000000000000000000000000000000000000008152600401611be3919061328d565b60405180910390fd5b5f80611bf88484611d6f565b91509150611c17855f848460405180602001604052805f815250611d9f565b5050505050565b5f805f90507a184f03e93ff9f4daa797ed6e38ed64bf6a1f0100000000000000008310611c7a577a184f03e93ff9f4daa797ed6e38ed64bf6a1f0100000000000000008381611c7057611c6f613924565b5b0492506040810190505b6d04ee2d6d415b85acef81000000008310611cb7576d04ee2d6d415b85acef81000000008381611cad57611cac613924565b5b0492506020810190505b662386f26fc100008310611ce657662386f26fc100008381611cdc57611cdb613924565b5b0492506010810190505b6305f5e1008310611d0f576305f5e1008381611d0557611d04613924565b5b0492506008810190505b6127108310611d34576127108381611d2a57611d29613924565b5b0492506004810190505b60648310611d575760648381611d4d57611d4c613924565b5b0492506002810190505b600a8310611d66576001810190505b80915050919050565b60608060405191506001825283602083015260408201905060018152826020820152604081016040529250929050565b611dab85858585611ee6565b5f73ffffffffffffffffffffffffffffffffffffffff168473ffffffffffffffffffffffffffffffffffffffff1614611e44575f611de761176d565b90506001845103611e33575f611e065f866118fa90919063ffffffff16565b90505f611e1c5f866118fa90919063ffffffff16565b9050611e2c838989858589611f36565b5050611e42565b611e418187878787876120e5565b5b505b5050505050565b5f8060205f8451602086015f885af180611e6a576040513d5f823e3d81fd5b3d92505f519150505f8214611e83576001811415611e9e565b5f8473ffffffffffffffffffffffffffffffffffffffff163b145b15611ee057836040517f5274afe7000000000000000000000000000000000000000000000000000000008152600401611ed7919061328d565b60405180910390fd5b50505050565b611ef284848484612294565b5f5b8251811015611f2f57611f228585858481518110611f1557611f14613649565b5b6020026020010151612624565b8080600101915050611ef4565b5050505050565b5f8473ffffffffffffffffffffffffffffffffffffffff163b11156120dd578373ffffffffffffffffffffffffffffffffffffffff1663f23a6e6187878686866040518663ffffffff1660e01b8152600401611f969594939291906139ca565b6020604051808303815f875af1925050508015611fd157506040513d601f19601f82011682018060405250810190611fce9190613a36565b60015b612052573d805f8114611fff576040519150601f19603f3d011682016040523d82523d5f602084013e612004565b606091505b505f81510361204a57846040517f57f447ce000000000000000000000000000000000000000000000000000000008152600401612041919061328d565b60405180910390fd5b805181602001fd5b63f23a6e6160e01b7bffffffffffffffffffffffffffffffffffffffffffffffffffffffff1916817bffffffffffffffffffffffffffffffffffffffffffffffffffffffff1916146120db57846040517f57f447ce0000000000000000000000000000000000000000000000000000000081526004016120d2919061328d565b60405180910390fd5b505b505050505050565b5f8473ffffffffffffffffffffffffffffffffffffffff163b111561228c578373ffffffffffffffffffffffffffffffffffffffff1663bc197c8187878686866040518663ffffffff1660e01b8152600401612145959493929190613a61565b6020604051808303815f875af192505050801561218057506040513d601f19601f8201168201806040525081019061217d9190613a36565b60015b612201573d805f81146121ae576040519150601f19603f3d011682016040523d82523d5f602084013e6121b3565b606091505b505f8151036121f957846040517f57f447ce0000000000000000000000000000000000000000000000000000000081526004016121f0919061328d565b60405180910390fd5b805181602001fd5b63bc197c8160e01b7bffffffffffffffffffffffffffffffffffffffffffffffffffffffff1916817bffffffffffffffffffffffffffffffffffffffffffffffffffffffff19161461228a57846040517f57f447ce000000000000000000000000000000000000000000000000000000008152600401612281919061328d565b60405180910390fd5b505b505050505050565b80518251146122de57815181516040517f5b0599910000000000000000000000000000000000000000000000000000000081526004016122d5929190613622565b60405180910390fd5b5f6122e761176d565b90505f5b83518110156124e3575f61230882866118fa90919063ffffffff16565b90505f61231e83866118fa90919063ffffffff16565b90505f73ffffffffffffffffffffffffffffffffffffffff168873ffffffffffffffffffffffffffffffffffffffff1614612441575f805f8481526020019081526020015f205f8a73ffffffffffffffffffffffffffffffffffffffff1673ffffffffffffffffffffffffffffffffffffffff1681526020019081526020015f20549050818110156123ed57888183856040517f03dee4c50000000000000000000000000000000000000000000000000000000081526004016123e49493929190613ac7565b60405180910390fd5b8181035f808581526020019081526020015f205f8b73ffffffffffffffffffffffffffffffffffffffff1673ffffffffffffffffffffffffffffffffffffffff1681526020019081526020015f2081905550505b5f73ffffffffffffffffffffffffffffffffffffffff168773ffffffffffffffffffffffffffffffffffffffff16146124d657805f808481526020019081526020015f205f8973ffffffffffffffffffffffffffffffffffffffff1673ffffffffffffffffffffffffffffffffffffffff1681526020019081526020015f205f8282546124ce91906137da565b925050819055505b50508060010190506122eb565b50600183510361259e575f6125015f856118fa90919063ffffffff16565b90505f6125175f856118fa90919063ffffffff16565b90508573ffffffffffffffffffffffffffffffffffffffff168773ffffffffffffffffffffffffffffffffffffffff168473ffffffffffffffffffffffffffffffffffffffff167fc3d58168c5ae7397731d063d5bbf3d657854427343f4c083240f7aacaa2d0f62858560405161258f929190613622565b60405180910390a4505061261d565b8373ffffffffffffffffffffffffffffffffffffffff168573ffffffffffffffffffffffffffffffffffffffff168273ffffffffffffffffffffffffffffffffffffffff167f4a39dc06d4c0dbc64b70af90fd698a233a518aa5d07e595d983b8c0526c8f7fb8686604051612614929190613b0a565b60405180910390a45b5050505050565b60028103612947575f73ffffffffffffffffffffffffffffffffffffffff168273ffffffffffffffffffffffffffffffffffffffff161415801561267057505f61266e8383610500565b115b80156126c3575060065f8373ffffffffffffffffffffffffffffffffffffffff1673ffffffffffffffffffffffffffffffffffffffff1681526020019081526020015f205f9054906101000a900460ff16155b1561280a5761271060078054905010612711576040517f08c379a00000000000000000000000000000000000000000000000000000000081526004016127089061359e565b60405180910390fd5b600160065f8473ffffffffffffffffffffffffffffffffffffffff1673ffffffffffffffffffffffffffffffffffffffff1681526020019081526020015f205f6101000a81548160ff021916908315150217905550600782908060018154018082558091505060019003905f5260205f20015f9091909190916101000a81548173ffffffffffffffffffffffffffffffffffffffff021916908373ffffffffffffffffffffffffffffffffffffffff1602179055508173ffffffffffffffffffffffffffffffffffffffff167f9894d458cf29e8bc4eb7e591bac54b31dc90125dfa852474419972ab4347dd1260405160405180910390a25b5f73ffffffffffffffffffffffffffffffffffffffff168373ffffffffffffffffffffffffffffffffffffffff161415801561284e57505f61284c8483610500565b145b80156128a0575060065f8473ffffffffffffffffffffffffffffffffffffffff1673ffffffffffffffffffffffffffffffffffffffff1681526020019081526020015f205f9054906101000a900460ff165b15612946575f60065f8573ffffffffffffffffffffffffffffffffffffffff1673ffffffffffffffffffffffffffffffffffffffff1681526020019081526020015f205f6101000a81548160ff0219169083151502179055506129028361294c565b8273ffffffffffffffffffffffffffffffffffffffff167fd9bc583d1445615d8b795b7374f03ff79efa83b6359a91331efd95e4cf023ab660405160405180910390a25b5b505050565b5f60078054905090505f5b81811015612ac4578273ffffffffffffffffffffffffffffffffffffffff166007828154811061298a57612989613649565b5b905f5260205f20015f9054906101000a900473ffffffffffffffffffffffffffffffffffffffff1673ffffffffffffffffffffffffffffffffffffffff1603612ab75760076001836129dc9190613b3f565b815481106129ed576129ec613649565b5b905f5260205f20015f9054906101000a900473ffffffffffffffffffffffffffffffffffffffff1660078281548110612a2957612a28613649565b5b905f5260205f20015f6101000a81548173ffffffffffffffffffffffffffffffffffffffff021916908373ffffffffffffffffffffffffffffffffffffffff1602179055506007805480612a8057612a7f613b72565b5b600190038181905f5260205f20015f6101000a81549073ffffffffffffffffffffffffffffffffffffffff02191690559055612ac4565b8080600101915050612957565b505050565b5f604051905090565b5f80fd5b5f80fd5b5f73ffffffffffffffffffffffffffffffffffffffff82169050919050565b5f612b0382612ada565b9050919050565b612b1381612af9565b8114612b1d575f80fd5b50565b5f81359050612b2e81612b0a565b92915050565b5f819050919050565b612b4681612b34565b8114612b50575f80fd5b50565b5f81359050612b6181612b3d565b92915050565b5f8060408385031215612b7d57612b7c612ad2565b5b5f612b8a85828601612b20565b9250506020612b9b85828601612b53565b9150509250929050565b612bae81612b34565b82525050565b5f602082019050612bc75f830184612ba5565b92915050565b5f7fffffffff0000000000000000000000000000000000000000000000000000000082169050919050565b612c0181612bcd565b8114612c0b575f80fd5b50565b5f81359050612c1c81612bf8565b92915050565b5f60208284031215612c3757612c36612ad2565b5b5f612c4484828501612c0e565b91505092915050565b5f8115159050919050565b612c6181612c4d565b82525050565b5f602082019050612c7a5f830184612c58565b92915050565b5f60208284031215612c9557612c94612ad2565b5b5f612ca284828501612b53565b91505092915050565b5f81519050919050565b5f82825260208201905092915050565b8281835e5f83830152505050565b5f601f19601f8301169050919050565b5f612ced82612cab565b612cf78185612cb5565b9350612d07818560208601612cc5565b612d1081612cd3565b840191505092915050565b5f6020820190508181035f830152612d338184612ce3565b905092915050565b5f805f60608486031215612d5257612d51612ad2565b5b5f612d5f86828701612b20565b9350506020612d7086828701612b53565b9250506040612d8186828701612b53565b9150509250925092565b5f80fd5b7f4e487b71000000000000000000000000000000000000000000000000000000005f52604160045260245ffd5b612dc582612cd3565b810181811067ffffffffffffffff82111715612de457612de3612d8f565b5b80604052505050565b5f612df6612ac9565b9050612e028282612dbc565b919050565b5f67ffffffffffffffff821115612e2157612e20612d8f565b5b602082029050602081019050919050565b5f80fd5b5f612e48612e4384612e07565b612ded565b90508083825260208201905060208402830185811115612e6b57612e6a612e32565b5b835b81811015612e945780612e808882612b53565b845260208401935050602081019050612e6d565b5050509392505050565b5f82601f830112612eb257612eb1612d8b565b5b8135612ec2848260208601612e36565b91505092915050565b5f80fd5b5f67ffffffffffffffff821115612ee957612ee8612d8f565b5b612ef282612cd3565b9050602081019050919050565b828183375f83830152505050565b5f612f1f612f1a84612ecf565b612ded565b905082815260208101848484011115612f3b57612f3a612ecb565b5b612f46848285612eff565b509392505050565b5f82601f830112612f6257612f61612d8b565b5b8135612f72848260208601612f0d565b91505092915050565b5f805f805f60a08688031215612f9457612f93612ad2565b5b5f612fa188828901612b20565b9550506020612fb288828901612b20565b945050604086013567ffffffffffffffff811115612fd357612fd2612ad6565b5b612fdf88828901612e9e565b935050606086013567ffffffffffffffff81111561300057612fff612ad6565b5b61300c88828901612e9e565b925050608086013567ffffffffffffffff81111561302d5761302c612ad6565b5b61303988828901612f4e565b9150509295509295909350565b5f67ffffffffffffffff8211156130605761305f612d8f565b5b602082029050602081019050919050565b5f61308361307e84613046565b612ded565b905080838252602082019050602084028301858111156130a6576130a5612e32565b5b835b818110156130cf57806130bb8882612b20565b8452602084019350506020810190506130a8565b5050509392505050565b5f82601f8301126130ed576130ec612d8b565b5b81356130fd848260208601613071565b91505092915050565b5f806040838503121561311c5761311b612ad2565b5b5f83013567ffffffffffffffff81111561313957613138612ad6565b5b613145858286016130d9565b925050602083013567ffffffffffffffff81111561316657613165612ad6565b5b61317285828601612e9e565b9150509250929050565b5f81519050919050565b5f82825260208201905092915050565b5f819050602082019050919050565b6131ae81612b34565b82525050565b5f6131bf83836131a5565b60208301905092915050565b5f602082019050919050565b5f6131e18261317c565b6131eb8185613186565b93506131f683613196565b805f5b8381101561322657815161320d88826131b4565b9750613218836131cb565b9250506001810190506131f9565b5085935050505092915050565b5f6020820190508181035f83015261324b81846131d7565b905092915050565b5f6020828403121561326857613267612ad2565b5b5f61327584828501612b20565b91505092915050565b61328781612af9565b82525050565b5f6020820190506132a05f83018461327e565b92915050565b6132af81612c4d565b81146132b9575f80fd5b50565b5f813590506132ca816132a6565b92915050565b5f80604083850312156132e6576132e5612ad2565b5b5f6132f385828601612b20565b9250506020613304858286016132bc565b9150509250929050565b5f806040838503121561332457613323612ad2565b5b5f61333185828601612b20565b925050602061334285828601612b20565b9150509250929050565b5f805f805f60a0868803121561336557613364612ad2565b5b5f61337288828901612b20565b955050602061338388828901612b20565b945050604061339488828901612b53565b93505060606133a588828901612b53565b925050608086013567ffffffffffffffff8111156133c6576133c5612ad6565b5b6133d288828901612f4e565b9150509295509295909350565b5f81905092915050565b7f697066733a2f2f000000000000000000000000000000000000000000000000005f82015250565b5f61341d6007836133df565b9150613428826133e9565b600782019050919050565b5f61343d82612cab565b61344781856133df565b9350613457818560208601612cc5565b80840191505092915050565b5f61346d82613411565b91506134798284613433565b915081905092915050565b7f554e415554484f52495a454400000000000000000000000000000000000000005f82015250565b5f6134b8600c83612cb5565b91506134c382613484565b602082019050919050565b5f6020820190508181035f8301526134e5816134ac565b9050919050565b7f496e76616c696420746f6b656e204944000000000000000000000000000000005f82015250565b5f613520601083612cb5565b915061352b826134ec565b602082019050919050565b5f6020820190508181035f83015261354d81613514565b9050919050565b7f4d617820686f6c646572732072656163686564000000000000000000000000005f82015250565b5f613588601383612cb5565b915061359382613554565b602082019050919050565b5f6020820190508181035f8301526135b58161357c565b9050919050565b5f6040820190506135cf5f83018561327e565b6135dc602083018461327e565b9392505050565b5f815190506135f181612b3d565b92915050565b5f6020828403121561360c5761360b612ad2565b5b5f613619848285016135e3565b91505092915050565b5f6040820190506136355f830185612ba5565b6136426020830184612ba5565b9392505050565b7f4e487b71000000000000000000000000000000000000000000000000000000005f52603260045260245ffd5b7f496e76616c696420746f6b656e206164647265737300000000000000000000005f82015250565b5f6136aa601583612cb5565b91506136b582613676565b602082019050919050565b5f6020820190508181035f8301526136d78161369e565b9050919050565b7f4e6f20746f6b656e7320617661696c61626c6520666f722064697374726962755f8201527f74696f6e00000000000000000000000000000000000000000000000000000000602082015250565b5f613738602483612cb5565b9150613743826136de565b604082019050919050565b5f6020820190508181035f8301526137658161372c565b9050919050565b7f4e487b71000000000000000000000000000000000000000000000000000000005f52601160045260245ffd5b5f6137a382612b34565b91506137ae83612b34565b92508282026137bc81612b34565b915082820484148315176137d3576137d261376c565b5b5092915050565b5f6137e482612b34565b91506137ef83612b34565b92508282019050808211156138075761380661376c565b5b92915050565b5f61381782612b34565b91507fffffffffffffffffffffffffffffffffffffffffffffffffffffffffffffffff82036138495761384861376c565b5b600182019050919050565b7f4e6f20656c696769626c6520726563697069656e7473000000000000000000005f82015250565b5f613888601683612cb5565b915061389382613854565b602082019050919050565b5f6020820190508181035f8301526138b58161387c565b9050919050565b7f496e73756666696369656e742066756e647300000000000000000000000000005f82015250565b5f6138f0601283612cb5565b91506138fb826138bc565b602082019050919050565b5f6020820190508181035f83015261391d816138e4565b9050919050565b7f4e487b71000000000000000000000000000000000000000000000000000000005f52601260045260245ffd5b5f6040820190506139645f83018561327e565b6139716020830184612ba5565b9392505050565b5f81519050919050565b5f82825260208201905092915050565b5f61399c82613978565b6139a68185613982565b93506139b6818560208601612cc5565b6139bf81612cd3565b840191505092915050565b5f60a0820190506139dd5f83018861327e565b6139ea602083018761327e565b6139f76040830186612ba5565b613a046060830185612ba5565b8181036080830152613a168184613992565b90509695505050505050565b5f81519050613a3081612bf8565b92915050565b5f60208284031215613a4b57613a4a612ad2565b5b5f613a5884828501613a22565b91505092915050565b5f60a082019050613a745f83018861327e565b613a81602083018761327e565b8181036040830152613a9381866131d7565b90508181036060830152613aa781856131d7565b90508181036080830152613abb8184613992565b90509695505050505050565b5f608082019050613ada5f83018761327e565b613ae76020830186612ba5565b613af46040830185612ba5565b613b016060830184612ba5565b95945050505050565b5f6040820190508181035f830152613b2281856131d7565b90508181036020830152613b3681846131d7565b90509392505050565b5f613b4982612b34565b9150613b5483612b34565b9250828203905081811115613b6c57613b6b61376c565b5b92915050565b7f4e487b71000000000000000000000000000000000000000000000000000000005f52603160045260245ffdfea2646970667358221220de619fb6a84d3740842028fb2ae05123f31f813925ab1b576ccc27dba44084eb64736f6c634300081a0033",
			"opcodes": "PUSH1 0x80 PUSH1 0x40 MSTORE CALLVALUE DUP1 ISZERO PUSH2 0xF JUMPI PUSH0 DUP1 REVERT JUMPDEST POP PUSH1 0x40 MLOAD PUSH2 0x4336 CODESIZE SUB DUP1 PUSH2 0x4336 DUP4 CODECOPY DUP2 DUP2 ADD PUSH1 0x40 MSTORE DUP2 ADD SWAP1 PUSH2 0x31 SWAP2 SWAP1 PUSH2 0x389 JUMP JUMPDEST DUP3 DUP5 PUSH2 0x42 DUP2 PUSH2 0x19C PUSH1 0x20 SHL PUSH1 0x20 SHR JUMP JUMPDEST POP DUP1 PUSH1 0x3 PUSH0 PUSH2 0x100 EXP DUP2 SLOAD DUP2 PUSH20 0xFFFFFFFFFFFFFFFFFFFFFFFFFFFFFFFFFFFFFFFF MUL NOT AND SWAP1 DUP4 PUSH20 0xFFFFFFFFFFFFFFFFFFFFFFFFFFFFFFFFFFFFFFFF AND MUL OR SWAP1 SSTORE POP DUP1 PUSH20 0xFFFFFFFFFFFFFFFFFFFFFFFFFFFFFFFFFFFFFFFF AND PUSH0 PUSH20 0xFFFFFFFFFFFFFFFFFFFFFFFFFFFFFFFFFFFFFFFF AND PUSH32 0x8BE0079C531659141344CD1FD0A4F28419497F9722A3DAAFE3B4186F6B6457E0 PUSH1 0x40 MLOAD PUSH1 0x40 MLOAD DUP1 SWAP2 SUB SWAP1 LOG3 POP PUSH0 PUSH20 0xFFFFFFFFFFFFFFFFFFFFFFFFFFFFFFFFFFFFFFFF AND DUP3 PUSH20 0xFFFFFFFFFFFFFFFFFFFFFFFFFFFFFFFFFFFFFFFF AND SUB PUSH2 0x14C JUMPI PUSH1 0x40 MLOAD PUSH32 0x8C379A000000000000000000000000000000000000000000000000000000000 DUP2 MSTORE PUSH1 0x4 ADD PUSH2 0x143 SWAP1 PUSH2 0x463 JUMP JUMPDEST PUSH1 0x40 MLOAD DUP1 SWAP2 SUB SWAP1 REVERT JUMPDEST DUP2 PUSH1 0x4 PUSH0 PUSH2 0x100 EXP DUP2 SLOAD DUP2 PUSH20 0xFFFFFFFFFFFFFFFFFFFFFFFFFFFFFFFFFFFFFFFF MUL NOT AND SWAP1 DUP4 PUSH20 0xFFFFFFFFFFFFFFFFFFFFFFFFFFFFFFFFFFFFFFFF AND MUL OR SWAP1 SSTORE POP DUP1 PUSH1 0x5 DUP2 SWAP1 SSTORE POP POP POP POP POP PUSH2 0x754 JUMP JUMPDEST DUP1 PUSH1 0x2 SWAP1 DUP2 PUSH2 0x1AB SWAP2 SWAP1 PUSH2 0x685 JUMP JUMPDEST POP POP JUMP JUMPDEST PUSH0 PUSH1 0x40 MLOAD SWAP1 POP SWAP1 JUMP JUMPDEST PUSH0 DUP1 REVERT JUMPDEST PUSH0 DUP1 REVERT JUMPDEST PUSH0 DUP1 REVERT JUMPDEST PUSH0 DUP1 REVERT JUMPDEST PUSH0 PUSH1 0x1F NOT PUSH1 0x1F DUP4 ADD AND SWAP1 POP SWAP2 SWAP1 POP JUMP JUMPDEST PUSH32 0x4E487B7100000000000000000000000000000000000000000000000000000000 PUSH0 MSTORE PUSH1 0x41 PUSH1 0x4 MSTORE PUSH1 0x24 PUSH0 REVERT JUMPDEST PUSH2 0x20E DUP3 PUSH2 0x1C8 JUMP JUMPDEST DUP2 ADD DUP2 DUP2 LT PUSH8 0xFFFFFFFFFFFFFFFF DUP3 GT OR ISZERO PUSH2 0x22D JUMPI PUSH2 0x22C PUSH2 0x1D8 JUMP JUMPDEST JUMPDEST DUP1 PUSH1 0x40 MSTORE POP POP POP JUMP JUMPDEST PUSH0 PUSH2 0x23F PUSH2 0x1AF JUMP JUMPDEST SWAP1 POP PUSH2 0x24B DUP3 DUP3 PUSH2 0x205 JUMP JUMPDEST SWAP2 SWAP1 POP JUMP JUMPDEST PUSH0 PUSH8 0xFFFFFFFFFFFFFFFF DUP3 GT ISZERO PUSH2 0x26A JUMPI PUSH2 0x269 PUSH2 0x1D8 JUMP JUMPDEST JUMPDEST PUSH2 0x273 DUP3 PUSH2 0x1C8 JUMP JUMPDEST SWAP1 POP PUSH1 0x20 DUP2 ADD SWAP1 POP SWAP2 SWAP1 POP JUMP JUMPDEST DUP3 DUP2 DUP4 MCOPY PUSH0 DUP4 DUP4 ADD MSTORE POP POP POP JUMP JUMPDEST PUSH0 PUSH2 0x2A0 PUSH2 0x29B DUP5 PUSH2 0x250 JUMP JUMPDEST PUSH2 0x236 JUMP JUMPDEST SWAP1 POP DUP3 DUP2 MSTORE PUSH1 0x20 DUP2 ADD DUP5 DUP5 DUP5 ADD GT ISZERO PUSH2 0x2BC JUMPI PUSH2 0x2BB PUSH2 0x1C4 JUMP JUMPDEST JUMPDEST PUSH2 0x2C7 DUP5 DUP3 DUP6 PUSH2 0x280 JUMP JUMPDEST POP SWAP4 SWAP3 POP POP POP JUMP JUMPDEST PUSH0 DUP3 PUSH1 0x1F DUP4 ADD SLT PUSH2 0x2E3 JUMPI PUSH2 0x2E2 PUSH2 0x1C0 JUMP JUMPDEST JUMPDEST DUP2 MLOAD PUSH2 0x2F3 DUP5 DUP3 PUSH1 0x20 DUP7 ADD PUSH2 0x28E JUMP JUMPDEST SWAP2 POP POP SWAP3 SWAP2 POP POP JUMP JUMPDEST PUSH0 PUSH20 0xFFFFFFFFFFFFFFFFFFFFFFFFFFFFFFFFFFFFFFFF DUP3 AND SWAP1 POP SWAP2 SWAP1 POP JUMP JUMPDEST PUSH0 PUSH2 0x325 DUP3 PUSH2 0x2FC JUMP JUMPDEST SWAP1 POP SWAP2 SWAP1 POP JUMP JUMPDEST PUSH2 0x335 DUP2 PUSH2 0x31B JUMP JUMPDEST DUP2 EQ PUSH2 0x33F JUMPI PUSH0 DUP1 REVERT JUMPDEST POP JUMP JUMPDEST PUSH0 DUP2 MLOAD SWAP1 POP PUSH2 0x350 DUP2 PUSH2 0x32C JUMP JUMPDEST SWAP3 SWAP2 POP POP JUMP JUMPDEST PUSH0 DUP2 SWAP1 POP SWAP2 SWAP1 POP JUMP JUMPDEST PUSH2 0x368 DUP2 PUSH2 0x356 JUMP JUMPDEST DUP2 EQ PUSH2 0x372 JUMPI PUSH0 DUP1 REVERT JUMPDEST POP JUMP JUMPDEST PUSH0 DUP2 MLOAD SWAP1 POP PUSH2 0x383 DUP2 PUSH2 0x35F JUMP JUMPDEST SWAP3 SWAP2 POP POP JUMP JUMPDEST PUSH0 DUP1 PUSH0 DUP1 PUSH1 0x80 DUP6 DUP8 SUB SLT ISZERO PUSH2 0x3A1 JUMPI PUSH2 0x3A0 PUSH2 0x1B8 JUMP JUMPDEST JUMPDEST PUSH0 DUP6 ADD MLOAD PUSH8 0xFFFFFFFFFFFFFFFF DUP2 GT ISZERO PUSH2 0x3BE JUMPI PUSH2 0x3BD PUSH2 0x1BC JUMP JUMPDEST JUMPDEST PUSH2 0x3CA DUP8 DUP3 DUP9 ADD PUSH2 0x2CF JUMP JUMPDEST SWAP5 POP POP PUSH1 0x20 PUSH2 0x3DB DUP8 DUP3 DUP9 ADD PUSH2 0x342 JUMP JUMPDEST SWAP4 POP POP PUSH1 0x40 PUSH2 0x3EC DUP8 DUP3 DUP9 ADD PUSH2 0x342 JUMP JUMPDEST SWAP3 POP POP PUSH1 0x60 PUSH2 0x3FD DUP8 DUP3 DUP9 ADD PUSH2 0x375 JUMP JUMPDEST SWAP2 POP POP SWAP3 SWAP6 SWAP2 SWAP5 POP SWAP3 POP JUMP JUMPDEST PUSH0 DUP3 DUP3 MSTORE PUSH1 0x20 DUP3 ADD SWAP1 POP SWAP3 SWAP2 POP POP JUMP JUMPDEST PUSH32 0x496E76616C696420746F6B656E20616464726573730000000000000000000000 PUSH0 DUP3 ADD MSTORE POP JUMP JUMPDEST PUSH0 PUSH2 0x44D PUSH1 0x15 DUP4 PUSH2 0x409 JUMP JUMPDEST SWAP2 POP PUSH2 0x458 DUP3 PUSH2 0x419 JUMP JUMPDEST PUSH1 0x20 DUP3 ADD SWAP1 POP SWAP2 SWAP1 POP JUMP JUMPDEST PUSH0 PUSH1 0x20 DUP3 ADD SWAP1 POP DUP2 DUP2 SUB PUSH0 DUP4 ADD MSTORE PUSH2 0x47A DUP2 PUSH2 0x441 JUMP JUMPDEST SWAP1 POP SWAP2 SWAP1 POP JUMP JUMPDEST PUSH0 DUP2 MLOAD SWAP1 POP SWAP2 SWAP1 POP JUMP JUMPDEST PUSH32 0x4E487B7100000000000000000000000000000000000000000000000000000000 PUSH0 MSTORE PUSH1 0x22 PUSH1 0x4 MSTORE PUSH1 0x24 PUSH0 REVERT JUMPDEST PUSH0 PUSH1 0x2 DUP3 DIV SWAP1 POP PUSH1 0x1 DUP3 AND DUP1 PUSH2 0x4CF JUMPI PUSH1 0x7F DUP3 AND SWAP2 POP JUMPDEST PUSH1 0x20 DUP3 LT DUP2 SUB PUSH2 0x4E2 JUMPI PUSH2 0x4E1 PUSH2 0x48B JUMP JUMPDEST JUMPDEST POP SWAP2 SWAP1 POP JUMP JUMPDEST PUSH0 DUP2 SWAP1 POP DUP2 PUSH0 MSTORE PUSH1 0x20 PUSH0 KECCAK256 SWAP1 POP SWAP2 SWAP1 POP JUMP JUMPDEST PUSH0 PUSH1 0x20 PUSH1 0x1F DUP4 ADD DIV SWAP1 POP SWAP2 SWAP1 POP JUMP JUMPDEST PUSH0 DUP3 DUP3 SHL SWAP1 POP SWAP3 SWAP2 POP POP JUMP JUMPDEST PUSH0 PUSH1 0x8 DUP4 MUL PUSH2 0x544 PUSH32 0xFFFFFFFFFFFFFFFFFFFFFFFFFFFFFFFFFFFFFFFFFFFFFFFFFFFFFFFFFFFFFFFF DUP3 PUSH2 0x509 JUMP JUMPDEST PUSH2 0x54E DUP7 DUP4 PUSH2 0x509 JUMP JUMPDEST SWAP6 POP DUP1 NOT DUP5 AND SWAP4 POP DUP1 DUP7 AND DUP5 OR SWAP3 POP POP POP SWAP4 SWAP3 POP POP POP JUMP JUMPDEST PUSH0 DUP2 SWAP1 POP SWAP2 SWAP1 POP JUMP JUMPDEST PUSH0 PUSH2 0x589 PUSH2 0x584 PUSH2 0x57F DUP5 PUSH2 0x356 JUMP JUMPDEST PUSH2 0x566 JUMP JUMPDEST PUSH2 0x356 JUMP JUMPDEST SWAP1 POP SWAP2 SWAP1 POP JUMP JUMPDEST PUSH0 DUP2 SWAP1 POP SWAP2 SWAP1 POP JUMP JUMPDEST PUSH2 0x5A2 DUP4 PUSH2 0x56F JUMP JUMPDEST PUSH2 0x5B6 PUSH2 0x5AE DUP3 PUSH2 0x590 JUMP JUMPDEST DUP5 DUP5 SLOAD PUSH2 0x515 JUMP JUMPDEST DUP3 SSTORE POP POP POP POP JUMP JUMPDEST PUSH0 SWAP1 JUMP JUMPDEST PUSH2 0x5CA PUSH2 0x5BE JUMP JUMPDEST PUSH2 0x5D5 DUP2 DUP5 DUP5 PUSH2 0x599 JUMP JUMPDEST POP POP POP JUMP JUMPDEST JUMPDEST DUP2 DUP2 LT ISZERO PUSH2 0x5F8 JUMPI PUSH2 0x5ED PUSH0 DUP3 PUSH2 0x5C2 JUMP JUMPDEST PUSH1 0x1 DUP2 ADD SWAP1 POP PUSH2 0x5DB JUMP JUMPDEST POP POP JUMP JUMPDEST PUSH1 0x1F DUP3 GT ISZERO PUSH2 0x63D JUMPI PUSH2 0x60E DUP2 PUSH2 0x4E8 JUMP JUMPDEST PUSH2 0x617 DUP5 PUSH2 0x4FA JUMP JUMPDEST DUP2 ADD PUSH1 0x20 DUP6 LT ISZERO PUSH2 0x626 JUMPI DUP2 SWAP1 POP JUMPDEST PUSH2 0x63A PUSH2 0x632 DUP6 PUSH2 0x4FA JUMP JUMPDEST DUP4 ADD DUP3 PUSH2 0x5DA JUMP JUMPDEST POP POP JUMPDEST POP POP POP JUMP JUMPDEST PUSH0 DUP3 DUP3 SHR SWAP1 POP SWAP3 SWAP2 POP POP JUMP JUMPDEST PUSH0 PUSH2 0x65D PUSH0 NOT DUP5 PUSH1 0x8 MUL PUSH2 0x642 JUMP JUMPDEST NOT DUP1 DUP4 AND SWAP2 POP POP SWAP3 SWAP2 POP POP JUMP JUMPDEST PUSH0 PUSH2 0x675 DUP4 DUP4 PUSH2 0x64E JUMP JUMPDEST SWAP2 POP DUP3 PUSH1 0x2 MUL DUP3 OR SWAP1 POP SWAP3 SWAP2 POP POP JUMP JUMPDEST PUSH2 0x68E DUP3 PUSH2 0x481 JUMP JUMPDEST PUSH8 0xFFFFFFFFFFFFFFFF DUP2 GT ISZERO PUSH2 0x6A7 JUMPI PUSH2 0x6A6 PUSH2 0x1D8 JUMP JUMPDEST JUMPDEST PUSH2 0x6B1 DUP3 SLOAD PUSH2 0x4B8 JUMP JUMPDEST PUSH2 0x6BC DUP3 DUP3 DUP6 PUSH2 0x5FC JUMP JUMPDEST PUSH0 PUSH1 0x20 SWAP1 POP PUSH1 0x1F DUP4 GT PUSH1 0x1 DUP2 EQ PUSH2 0x6ED JUMPI PUSH0 DUP5 ISZERO PUSH2 0x6DB JUMPI DUP3 DUP8 ADD MLOAD SWAP1 POP JUMPDEST PUSH2 0x6E5 DUP6 DUP3 PUSH2 0x66A JUMP JUMPDEST DUP7 SSTORE POP PUSH2 0x74C JUMP JUMPDEST PUSH1 0x1F NOT DUP5 AND PUSH2 0x6FB DUP7 PUSH2 0x4E8 JUMP JUMPDEST PUSH0 JUMPDEST DUP3 DUP2 LT ISZERO PUSH2 0x722 JUMPI DUP5 DUP10 ADD MLOAD DUP3 SSTORE PUSH1 0x1 DUP3 ADD SWAP2 POP PUSH1 0x20 DUP6 ADD SWAP5 POP PUSH1 0x20 DUP2 ADD SWAP1 POP PUSH2 0x6FD JUMP JUMPDEST DUP7 DUP4 LT ISZERO PUSH2 0x73F JUMPI DUP5 DUP10 ADD MLOAD PUSH2 0x73B PUSH1 0x1F DUP10 AND DUP3 PUSH2 0x64E JUMP JUMPDEST DUP4 SSTORE POP JUMPDEST PUSH1 0x1 PUSH1 0x2 DUP9 MUL ADD DUP9 SSTORE POP POP POP JUMPDEST POP POP POP POP POP POP JUMP JUMPDEST PUSH2 0x3BD5 DUP1 PUSH2 0x761 PUSH0 CODECOPY PUSH0 RETURN INVALID PUSH1 0x80 PUSH1 0x40 MSTORE PUSH1 0x4 CALLDATASIZE LT PUSH2 0x137 JUMPI PUSH0 CALLDATALOAD PUSH1 0xE0 SHR DUP1 PUSH4 0x7136982B GT PUSH2 0xAA JUMPI DUP1 PUSH4 0xAF82B107 GT PUSH2 0x6E JUMPI DUP1 PUSH4 0xAF82B107 EQ PUSH2 0x3F8 JUMPI DUP1 PUSH4 0xE985E9C5 EQ PUSH2 0x422 JUMPI DUP1 PUSH4 0xF242432A EQ PUSH2 0x45E JUMPI DUP1 PUSH4 0xF2FDE38B EQ PUSH2 0x486 JUMPI DUP1 PUSH4 0xF5298ACA EQ PUSH2 0x4AE JUMPI DUP1 PUSH4 0xF7C618C1 EQ PUSH2 0x4D6 JUMPI PUSH2 0x13E JUMP JUMPDEST DUP1 PUSH4 0x7136982B EQ PUSH2 0x33E JUMPI DUP1 PUSH4 0x8AEE8127 EQ PUSH2 0x368 JUMPI DUP1 PUSH4 0x8DA5CB5B EQ PUSH2 0x390 JUMPI DUP1 PUSH4 0x9AB1B484 EQ PUSH2 0x3BA JUMPI DUP1 PUSH4 0xA22CB465 EQ PUSH2 0x3D0 JUMPI PUSH2 0x13E JUMP JUMPDEST DUP1 PUSH4 0x2EB2C2D6 GT PUSH2 0xFC JUMPI DUP1 PUSH4 0x2EB2C2D6 EQ PUSH2 0x248 JUMPI DUP1 PUSH4 0x370243DC EQ PUSH2 0x270 JUMPI DUP1 PUSH4 0x46860698 EQ PUSH2 0x286 JUMPI DUP1 PUSH4 0x4E1273F4 EQ PUSH2 0x2AE JUMPI DUP1 PUSH4 0x4FFD4EED EQ PUSH2 0x2EA JUMPI DUP1 PUSH4 0x6EF25C3A EQ PUSH2 0x314 JUMPI PUSH2 0x13E JUMP JUMPDEST DUP1 PUSH3 0xFDD58E EQ PUSH2 0x142 JUMPI DUP1 PUSH4 0x1FFC9A7 EQ PUSH2 0x17E JUMPI DUP1 PUSH4 0xE89341C EQ PUSH2 0x1BA JUMPI DUP1 PUSH4 0x156E29F6 EQ PUSH2 0x1F6 JUMPI DUP1 PUSH4 0x22E12720 EQ PUSH2 0x21E JUMPI PUSH2 0x13E JUMP JUMPDEST CALLDATASIZE PUSH2 0x13E JUMPI STOP JUMPDEST PUSH0 DUP1 REVERT JUMPDEST CALLVALUE DUP1 ISZERO PUSH2 0x14D JUMPI PUSH0 DUP1 REVERT JUMPDEST POP PUSH2 0x168 PUSH1 0x4 DUP1 CALLDATASIZE SUB DUP2 ADD SWAP1 PUSH2 0x163 SWAP2 SWAP1 PUSH2 0x2B67 JUMP JUMPDEST PUSH2 0x500 JUMP JUMPDEST PUSH1 0x40 MLOAD PUSH2 0x175 SWAP2 SWAP1 PUSH2 0x2BB4 JUMP JUMPDEST PUSH1 0x40 MLOAD DUP1 SWAP2 SUB SWAP1 RETURN JUMPDEST CALLVALUE DUP1 ISZERO PUSH2 0x189 JUMPI PUSH0 DUP1 REVERT JUMPDEST POP PUSH2 0x1A4 PUSH1 0x4 DUP1 CALLDATASIZE SUB DUP2 ADD SWAP1 PUSH2 0x19F SWAP2 SWAP1 PUSH2 0x2C22 JUMP JUMPDEST PUSH2 0x555 JUMP JUMPDEST PUSH1 0x40 MLOAD PUSH2 0x1B1 SWAP2 SWAP1 PUSH2 0x2C67 JUMP JUMPDEST PUSH1 0x40 MLOAD DUP1 SWAP2 SUB SWAP1 RETURN JUMPDEST CALLVALUE DUP1 ISZERO PUSH2 0x1C5 JUMPI PUSH0 DUP1 REVERT JUMPDEST POP PUSH2 0x1E0 PUSH1 0x4 DUP1 CALLDATASIZE SUB DUP2 ADD SWAP1 PUSH2 0x1DB SWAP2 SWAP1 PUSH2 0x2C80 JUMP JUMPDEST PUSH2 0x636 JUMP JUMPDEST PUSH1 0x40 MLOAD PUSH2 0x1ED SWAP2 SWAP1 PUSH2 0x2D1B JUMP JUMPDEST PUSH1 0x40 MLOAD DUP1 SWAP2 SUB SWAP1 RETURN JUMPDEST CALLVALUE DUP1 ISZERO PUSH2 0x201 JUMPI PUSH0 DUP1 REVERT JUMPDEST POP PUSH2 0x21C PUSH1 0x4 DUP1 CALLDATASIZE SUB DUP2 ADD SWAP1 PUSH2 0x217 SWAP2 SWAP1 PUSH2 0x2D3B JUMP JUMPDEST PUSH2 0x667 JUMP JUMPDEST STOP JUMPDEST CALLVALUE DUP1 ISZERO PUSH2 0x229 JUMPI PUSH0 DUP1 REVERT JUMPDEST POP PUSH2 0x232 PUSH2 0x809 JUMP JUMPDEST PUSH1 0x40 MLOAD PUSH2 0x23F SWAP2 SWAP1 PUSH2 0x2BB4 JUMP JUMPDEST PUSH1 0x40 MLOAD DUP1 SWAP2 SUB SWAP1 RETURN JUMPDEST CALLVALUE DUP1 ISZERO PUSH2 0x253 JUMPI PUSH0 DUP1 REVERT JUMPDEST POP PUSH2 0x26E PUSH1 0x4 DUP1 CALLDATASIZE SUB DUP2 ADD SWAP1 PUSH2 0x269 SWAP2 SWAP1 PUSH2 0x2F7B JUMP JUMPDEST PUSH2 0x80F JUMP JUMPDEST STOP JUMPDEST CALLVALUE DUP1 ISZERO PUSH2 0x27B JUMPI PUSH0 DUP1 REVERT JUMPDEST POP PUSH2 0x284 PUSH2 0x8B6 JUMP JUMPDEST STOP JUMPDEST CALLVALUE DUP1 ISZERO PUSH2 0x291 JUMPI PUSH0 DUP1 REVERT JUMPDEST POP PUSH2 0x2AC PUSH1 0x4 DUP1 CALLDATASIZE SUB DUP2 ADD SWAP1 PUSH2 0x2A7 SWAP2 SWAP1 PUSH2 0x2C80 JUMP JUMPDEST PUSH2 0xA35 JUMP JUMPDEST STOP JUMPDEST CALLVALUE DUP1 ISZERO PUSH2 0x2B9 JUMPI PUSH0 DUP1 REVERT JUMPDEST POP PUSH2 0x2D4 PUSH1 0x4 DUP1 CALLDATASIZE SUB DUP2 ADD SWAP1 PUSH2 0x2CF SWAP2 SWAP1 PUSH2 0x3106 JUMP JUMPDEST PUSH2 0xB05 JUMP JUMPDEST PUSH1 0x40 MLOAD PUSH2 0x2E1 SWAP2 SWAP1 PUSH2 0x3233 JUMP JUMPDEST PUSH1 0x40 MLOAD DUP1 SWAP2 SUB SWAP1 RETURN JUMPDEST CALLVALUE DUP1 ISZERO PUSH2 0x2F5 JUMPI PUSH0 DUP1 REVERT JUMPDEST POP PUSH2 0x2FE PUSH2 0xC0C JUMP JUMPDEST PUSH1 0x40 MLOAD PUSH2 0x30B SWAP2 SWAP1 PUSH2 0x2BB4 JUMP JUMPDEST PUSH1 0x40 MLOAD DUP1 SWAP2 SUB SWAP1 RETURN JUMPDEST CALLVALUE DUP1 ISZERO PUSH2 0x31F JUMPI PUSH0 DUP1 REVERT JUMPDEST POP PUSH2 0x328 PUSH2 0xC11 JUMP JUMPDEST PUSH1 0x40 MLOAD PUSH2 0x335 SWAP2 SWAP1 PUSH2 0x2BB4 JUMP JUMPDEST PUSH1 0x40 MLOAD DUP1 SWAP2 SUB SWAP1 RETURN JUMPDEST CALLVALUE DUP1 ISZERO PUSH2 0x349 JUMPI PUSH0 DUP1 REVERT JUMPDEST POP PUSH2 0x352 PUSH2 0xC17 JUMP JUMPDEST PUSH1 0x40 MLOAD PUSH2 0x35F SWAP2 SWAP1 PUSH2 0x2BB4 JUMP JUMPDEST PUSH1 0x40 MLOAD DUP1 SWAP2 SUB SWAP1 RETURN JUMPDEST CALLVALUE DUP1 ISZERO PUSH2 0x373 JUMPI PUSH0 DUP1 REVERT JUMPDEST POP PUSH2 0x38E PUSH1 0x4 DUP1 CALLDATASIZE SUB DUP2 ADD SWAP1 PUSH2 0x389 SWAP2 SWAP1 PUSH2 0x3253 JUMP JUMPDEST PUSH2 0xC23 JUMP JUMPDEST STOP JUMPDEST CALLVALUE DUP1 ISZERO PUSH2 0x39B JUMPI PUSH0 DUP1 REVERT JUMPDEST POP PUSH2 0x3A4 PUSH2 0xDA6 JUMP JUMPDEST PUSH1 0x40 MLOAD PUSH2 0x3B1 SWAP2 SWAP1 PUSH2 0x328D JUMP JUMPDEST PUSH1 0x40 MLOAD DUP1 SWAP2 SUB SWAP1 RETURN JUMPDEST CALLVALUE DUP1 ISZERO PUSH2 0x3C5 JUMPI PUSH0 DUP1 REVERT JUMPDEST POP PUSH2 0x3CE PUSH2 0xDCB JUMP JUMPDEST STOP JUMPDEST CALLVALUE DUP1 ISZERO PUSH2 0x3DB JUMPI PUSH0 DUP1 REVERT JUMPDEST POP PUSH2 0x3F6 PUSH1 0x4 DUP1 CALLDATASIZE SUB DUP2 ADD SWAP1 PUSH2 0x3F1 SWAP2 SWAP1 PUSH2 0x32D0 JUMP JUMPDEST PUSH2 0x1265 JUMP JUMPDEST STOP JUMPDEST CALLVALUE DUP1 ISZERO PUSH2 0x403 JUMPI PUSH0 DUP1 REVERT JUMPDEST POP PUSH2 0x40C PUSH2 0x127B JUMP JUMPDEST PUSH1 0x40 MLOAD PUSH2 0x419 SWAP2 SWAP1 PUSH2 0x2BB4 JUMP JUMPDEST PUSH1 0x40 MLOAD DUP1 SWAP2 SUB SWAP1 RETURN JUMPDEST CALLVALUE DUP1 ISZERO PUSH2 0x42D JUMPI PUSH0 DUP1 REVERT JUMPDEST POP PUSH2 0x448 PUSH1 0x4 DUP1 CALLDATASIZE SUB DUP2 ADD SWAP1 PUSH2 0x443 SWAP2 SWAP1 PUSH2 0x330E JUMP JUMPDEST PUSH2 0x1280 JUMP JUMPDEST PUSH1 0x40 MLOAD PUSH2 0x455 SWAP2 SWAP1 PUSH2 0x2C67 JUMP JUMPDEST PUSH1 0x40 MLOAD DUP1 SWAP2 SUB SWAP1 RETURN JUMPDEST CALLVALUE DUP1 ISZERO PUSH2 0x469 JUMPI PUSH0 DUP1 REVERT JUMPDEST POP PUSH2 0x484 PUSH1 0x4 DUP1 CALLDATASIZE SUB DUP2 ADD SWAP1 PUSH2 0x47F SWAP2 SWAP1 PUSH2 0x334C JUMP JUMPDEST PUSH2 0x130E JUMP JUMPDEST STOP JUMPDEST CALLVALUE DUP1 ISZERO PUSH2 0x491 JUMPI PUSH0 DUP1 REVERT JUMPDEST POP PUSH2 0x4AC PUSH1 0x4 DUP1 CALLDATASIZE SUB DUP2 ADD SWAP1 PUSH2 0x4A7 SWAP2 SWAP1 PUSH2 0x3253 JUMP JUMPDEST PUSH2 0x13B5 JUMP JUMPDEST STOP JUMPDEST CALLVALUE DUP1 ISZERO PUSH2 0x4B9 JUMPI PUSH0 DUP1 REVERT JUMPDEST POP PUSH2 0x4D4 PUSH1 0x4 DUP1 CALLDATASIZE SUB DUP2 ADD SWAP1 PUSH2 0x4CF SWAP2 SWAP1 PUSH2 0x2D3B JUMP JUMPDEST PUSH2 0x14E1 JUMP JUMPDEST STOP JUMPDEST CALLVALUE DUP1 ISZERO PUSH2 0x4E1 JUMPI PUSH0 DUP1 REVERT JUMPDEST POP PUSH2 0x4EA PUSH2 0x1580 JUMP JUMPDEST PUSH1 0x40 MLOAD PUSH2 0x4F7 SWAP2 SWAP1 PUSH2 0x328D JUMP JUMPDEST PUSH1 0x40 MLOAD DUP1 SWAP2 SUB SWAP1 RETURN JUMPDEST PUSH0 DUP1 PUSH0 DUP4 DUP2 MSTORE PUSH1 0x20 ADD SWAP1 DUP2 MSTORE PUSH1 0x20 ADD PUSH0 KECCAK256 PUSH0 DUP5 PUSH20 0xFFFFFFFFFFFFFFFFFFFFFFFFFFFFFFFFFFFFFFFF AND PUSH20 0xFFFFFFFFFFFFFFFFFFFFFFFFFFFFFFFFFFFFFFFF AND DUP2 MSTORE PUSH1 0x20 ADD SWAP1 DUP2 MSTORE PUSH1 0x20 ADD PUSH0 KECCAK256 SLOAD SWAP1 POP SWAP3 SWAP2 POP POP JUMP JUMPDEST PUSH0 PUSH32 0xD9B67A2600000000000000000000000000000000000000000000000000000000 PUSH28 0xFFFFFFFFFFFFFFFFFFFFFFFFFFFFFFFFFFFFFFFFFFFFFFFFFFFFFFFF NOT AND DUP3 PUSH28 0xFFFFFFFFFFFFFFFFFFFFFFFFFFFFFFFFFFFFFFFFFFFFFFFFFFFFFFFF NOT AND EQ DUP1 PUSH2 0x61F JUMPI POP PUSH32 0xE89341C00000000000000000000000000000000000000000000000000000000 PUSH28 0xFFFFFFFFFFFFFFFFFFFFFFFFFFFFFFFFFFFFFFFFFFFFFFFFFFFFFFFF NOT AND DUP3 PUSH28 0xFFFFFFFFFFFFFFFFFFFFFFFFFFFFFFFFFFFFFFFFFFFFFFFFFFFFFFFF NOT AND EQ JUMPDEST DUP1 PUSH2 0x62F JUMPI POP PUSH2 0x62E DUP3 PUSH2 0x15A5 JUMP JUMPDEST JUMPDEST SWAP1 POP SWAP2 SWAP1 POP JUMP JUMPDEST PUSH1 0x60 PUSH2 0x641 DUP3 PUSH2 0x160E JUMP JUMPDEST PUSH1 0x40 MLOAD PUSH1 0x20 ADD PUSH2 0x651 SWAP2 SWAP1 PUSH2 0x3463 JUMP JUMPDEST PUSH1 0x40 MLOAD PUSH1 0x20 DUP2 DUP4 SUB SUB DUP2 MSTORE SWAP1 PUSH1 0x40 MSTORE SWAP1 POP SWAP2 SWAP1 POP JUMP JUMPDEST PUSH1 0x3 PUSH0 SWAP1 SLOAD SWAP1 PUSH2 0x100 EXP SWAP1 DIV PUSH20 0xFFFFFFFFFFFFFFFFFFFFFFFFFFFFFFFFFFFFFFFF AND PUSH20 0xFFFFFFFFFFFFFFFFFFFFFFFFFFFFFFFFFFFFFFFF AND CALLER PUSH20 0xFFFFFFFFFFFFFFFFFFFFFFFFFFFFFFFFFFFFFFFF AND EQ PUSH2 0x6F6 JUMPI PUSH1 0x40 MLOAD PUSH32 0x8C379A000000000000000000000000000000000000000000000000000000000 DUP2 MSTORE PUSH1 0x4 ADD PUSH2 0x6ED SWAP1 PUSH2 0x34CE JUMP JUMPDEST PUSH1 0x40 MLOAD DUP1 SWAP2 SUB SWAP1 REVERT JUMPDEST PUSH1 0x1 DUP3 EQ DUP1 PUSH2 0x705 JUMPI POP PUSH1 0x2 DUP3 EQ JUMPDEST PUSH2 0x744 JUMPI PUSH1 0x40 MLOAD PUSH32 0x8C379A000000000000000000000000000000000000000000000000000000000 DUP2 MSTORE PUSH1 0x4 ADD PUSH2 0x73B SWAP1 PUSH2 0x3536 JUMP JUMPDEST PUSH1 0x40 MLOAD DUP1 SWAP2 SUB SWAP1 REVERT JUMPDEST PUSH1 0x2 DUP3 EQ DUP1 ISZERO PUSH2 0x79B JUMPI POP PUSH1 0x6 PUSH0 DUP5 PUSH20 0xFFFFFFFFFFFFFFFFFFFFFFFFFFFFFFFFFFFFFFFF AND PUSH20 0xFFFFFFFFFFFFFFFFFFFFFFFFFFFFFFFFFFFFFFFF AND DUP2 MSTORE PUSH1 0x20 ADD SWAP1 DUP2 MSTORE PUSH1 0x20 ADD PUSH0 KECCAK256 PUSH0 SWAP1 SLOAD SWAP1 PUSH2 0x100 EXP SWAP1 DIV PUSH1 0xFF AND ISZERO JUMPDEST ISZERO PUSH2 0x7EA JUMPI PUSH2 0x2710 PUSH1 0x7 DUP1 SLOAD SWAP1 POP LT PUSH2 0x7E9 JUMPI PUSH1 0x40 MLOAD PUSH32 0x8C379A000000000000000000000000000000000000000000000000000000000 DUP2 MSTORE PUSH1 0x4 ADD PUSH2 0x7E0 SWAP1 PUSH2 0x359E JUMP JUMPDEST PUSH1 0x40 MLOAD DUP1 SWAP2 SUB SWAP1 REVERT JUMPDEST JUMPDEST PUSH2 0x804 DUP4 DUP4 DUP4 PUSH1 0x40 MLOAD DUP1 PUSH1 0x20 ADD PUSH1 0x40 MSTORE DUP1 PUSH0 DUP2 MSTORE POP PUSH2 0x16D8 JUMP JUMPDEST POP POP POP JUMP JUMPDEST PUSH2 0x2710 DUP2 JUMP JUMPDEST PUSH0 PUSH2 0x818 PUSH2 0x176D JUMP JUMPDEST SWAP1 POP DUP1 PUSH20 0xFFFFFFFFFFFFFFFFFFFFFFFFFFFFFFFFFFFFFFFF AND DUP7 PUSH20 0xFFFFFFFFFFFFFFFFFFFFFFFFFFFFFFFFFFFFFFFF AND EQ ISZERO DUP1 ISZERO PUSH2 0x85D JUMPI POP PUSH2 0x85B DUP7 DUP3 PUSH2 0x1280 JUMP JUMPDEST ISZERO JUMPDEST ISZERO PUSH2 0x8A1 JUMPI DUP1 DUP7 PUSH1 0x40 MLOAD PUSH32 0xE237D92200000000000000000000000000000000000000000000000000000000 DUP2 MSTORE PUSH1 0x4 ADD PUSH2 0x898 SWAP3 SWAP2 SWAP1 PUSH2 0x35BC JUMP JUMPDEST PUSH1 0x40 MLOAD DUP1 SWAP2 SUB SWAP1 REVERT JUMPDEST PUSH2 0x8AE DUP7 DUP7 DUP7 DUP7 DUP7 PUSH2 0x1774 JUMP JUMPDEST POP POP POP POP POP POP JUMP JUMPDEST PUSH1 0x3 PUSH0 SWAP1 SLOAD SWAP1 PUSH2 0x100 EXP SWAP1 DIV PUSH20 0xFFFFFFFFFFFFFFFFFFFFFFFFFFFFFFFFFFFFFFFF AND PUSH20 0xFFFFFFFFFFFFFFFFFFFFFFFFFFFFFFFFFFFFFFFF AND CALLER PUSH20 0xFFFFFFFFFFFFFFFFFFFFFFFFFFFFFFFFFFFFFFFF AND EQ PUSH2 0x945 JUMPI PUSH1 0x40 MLOAD PUSH32 0x8C379A000000000000000000000000000000000000000000000000000000000 DUP2 MSTORE PUSH1 0x4 ADD PUSH2 0x93C SWAP1 PUSH2 0x34CE JUMP JUMPDEST PUSH1 0x40 MLOAD DUP1 SWAP2 SUB SWAP1 REVERT JUMPDEST PUSH0 PUSH1 0x4 PUSH0 SWAP1 SLOAD SWAP1 PUSH2 0x100 EXP SWAP1 DIV PUSH20 0xFFFFFFFFFFFFFFFFFFFFFFFFFFFFFFFFFFFFFFFF AND SWAP1 POP PUSH0 DUP2 PUSH20 0xFFFFFFFFFFFFFFFFFFFFFFFFFFFFFFFFFFFFFFFF AND PUSH4 0x70A08231 ADDRESS PUSH1 0x40 MLOAD DUP3 PUSH4 0xFFFFFFFF AND PUSH1 0xE0 SHL DUP2 MSTORE PUSH1 0x4 ADD PUSH2 0x9A4 SWAP2 SWAP1 PUSH2 0x328D JUMP JUMPDEST PUSH1 0x20 PUSH1 0x40 MLOAD DUP1 DUP4 SUB DUP2 DUP7 GAS STATICCALL ISZERO DUP1 ISZERO PUSH2 0x9BF JUMPI RETURNDATASIZE PUSH0 DUP1 RETURNDATACOPY RETURNDATASIZE PUSH0 REVERT JUMPDEST POP POP POP POP PUSH1 0x40 MLOAD RETURNDATASIZE PUSH1 0x1F NOT PUSH1 0x1F DUP3 ADD AND DUP3 ADD DUP1 PUSH1 0x40 MSTORE POP DUP2 ADD SWAP1 PUSH2 0x9E3 SWAP2 SWAP1 PUSH2 0x35F7 JUMP JUMPDEST SWAP1 POP PUSH2 0xA31 PUSH1 0x3 PUSH0 SWAP1 SLOAD SWAP1 PUSH2 0x100 EXP SWAP1 DIV PUSH20 0xFFFFFFFFFFFFFFFFFFFFFFFFFFFFFFFFFFFFFFFF AND DUP3 DUP5 PUSH20 0xFFFFFFFFFFFFFFFFFFFFFFFFFFFFFFFFFFFFFFFF AND PUSH2 0x1868 SWAP1 SWAP3 SWAP2 SWAP1 PUSH4 0xFFFFFFFF AND JUMP JUMPDEST POP POP JUMP JUMPDEST PUSH1 0x3 PUSH0 SWAP1 SLOAD SWAP1 PUSH2 0x100 EXP SWAP1 DIV PUSH20 0xFFFFFFFFFFFFFFFFFFFFFFFFFFFFFFFFFFFFFFFF AND PUSH20 0xFFFFFFFFFFFFFFFFFFFFFFFFFFFFFFFFFFFFFFFF AND CALLER PUSH20 0xFFFFFFFFFFFFFFFFFFFFFFFFFFFFFFFFFFFFFFFF AND EQ PUSH2 0xAC4 JUMPI PUSH1 0x40 MLOAD PUSH32 0x8C379A000000000000000000000000000000000000000000000000000000000 DUP2 MSTORE PUSH1 0x4 ADD PUSH2 0xABB SWAP1 PUSH2 0x34CE JUMP JUMPDEST PUSH1 0x40 MLOAD DUP1 SWAP2 SUB SWAP1 REVERT JUMPDEST DUP1 PUSH1 0x5 DUP2 SWAP1 SSTORE POP PUSH32 0x803BEE7E92BBC6AE7A1551F9F4ED3E31A8EA8DF32E93332F41B0028F1091F9C3 DUP2 PUSH1 0x40 MLOAD PUSH2 0xAFA SWAP2 SWAP1 PUSH2 0x2BB4 JUMP JUMPDEST PUSH1 0x40 MLOAD DUP1 SWAP2 SUB SWAP1 LOG1 POP JUMP JUMPDEST PUSH1 0x60 DUP2 MLOAD DUP4 MLOAD EQ PUSH2 0xB51 JUMPI DUP2 MLOAD DUP4 MLOAD PUSH1 0x40 MLOAD PUSH32 0x5B05999100000000000000000000000000000000000000000000000000000000 DUP2 MSTORE PUSH1 0x4 ADD PUSH2 0xB48 SWAP3 SWAP2 SWAP1 PUSH2 0x3622 JUMP JUMPDEST PUSH1 0x40 MLOAD DUP1 SWAP2 SUB SWAP1 REVERT JUMPDEST PUSH0 DUP4 MLOAD PUSH8 0xFFFFFFFFFFFFFFFF DUP2 GT ISZERO PUSH2 0xB6D JUMPI PUSH2 0xB6C PUSH2 0x2D8F JUMP JUMPDEST JUMPDEST PUSH1 0x40 MLOAD SWAP1 DUP1 DUP3 MSTORE DUP1 PUSH1 0x20 MUL PUSH1 0x20 ADD DUP3 ADD PUSH1 0x40 MSTORE DUP1 ISZERO PUSH2 0xB9B JUMPI DUP2 PUSH1 0x20 ADD PUSH1 0x20 DUP3 MUL DUP1 CALLDATASIZE DUP4 CALLDATACOPY DUP1 DUP3 ADD SWAP2 POP POP SWAP1 POP JUMPDEST POP SWAP1 POP PUSH0 JUMPDEST DUP5 MLOAD DUP2 LT ISZERO PUSH2 0xC01 JUMPI PUSH2 0xBD7 PUSH2 0xBBF DUP3 DUP8 PUSH2 0x18E7 SWAP1 SWAP2 SWAP1 PUSH4 0xFFFFFFFF AND JUMP JUMPDEST PUSH2 0xBD2 DUP4 DUP8 PUSH2 0x18FA SWAP1 SWAP2 SWAP1 PUSH4 0xFFFFFFFF AND JUMP JUMPDEST PUSH2 0x500 JUMP JUMPDEST DUP3 DUP3 DUP2 MLOAD DUP2 LT PUSH2 0xBEA JUMPI PUSH2 0xBE9 PUSH2 0x3649 JUMP JUMPDEST JUMPDEST PUSH1 0x20 MUL PUSH1 0x20 ADD ADD DUP2 DUP2 MSTORE POP POP DUP1 PUSH1 0x1 ADD SWAP1 POP PUSH2 0xBA0 JUMP JUMPDEST POP DUP1 SWAP2 POP POP SWAP3 SWAP2 POP POP JUMP JUMPDEST PUSH1 0x2 DUP2 JUMP JUMPDEST PUSH1 0x5 SLOAD DUP2 JUMP JUMPDEST PUSH0 PUSH1 0x7 DUP1 SLOAD SWAP1 POP SWAP1 POP SWAP1 JUMP JUMPDEST PUSH1 0x3 PUSH0 SWAP1 SLOAD SWAP1 PUSH2 0x100 EXP SWAP1 DIV PUSH20 0xFFFFFFFFFFFFFFFFFFFFFFFFFFFFFFFFFFFFFFFF AND PUSH20 0xFFFFFFFFFFFFFFFFFFFFFFFFFFFFFFFFFFFFFFFF AND CALLER PUSH20 0xFFFFFFFFFFFFFFFFFFFFFFFFFFFFFFFFFFFFFFFF AND EQ PUSH2 0xCB2 JUMPI PUSH1 0x40 MLOAD PUSH32 0x8C379A000000000000000000000000000000000000000000000000000000000 DUP2 MSTORE PUSH1 0x4 ADD PUSH2 0xCA9 SWAP1 PUSH2 0x34CE JUMP JUMPDEST PUSH1 0x40 MLOAD DUP1 SWAP2 SUB SWAP1 REVERT JUMPDEST PUSH0 PUSH20 0xFFFFFFFFFFFFFFFFFFFFFFFFFFFFFFFFFFFFFFFF AND DUP2 PUSH20 0xFFFFFFFFFFFFFFFFFFFFFFFFFFFFFFFFFFFFFFFF AND SUB PUSH2 0xD20 JUMPI PUSH1 0x40 MLOAD PUSH32 0x8C379A000000000000000000000000000000000000000000000000000000000 DUP2 MSTORE PUSH1 0x4 ADD PUSH2 0xD17 SWAP1 PUSH2 0x36C0 JUMP JUMPDEST PUSH1 0x40 MLOAD DUP1 SWAP2 SUB SWAP1 REVERT JUMPDEST DUP1 PUSH1 0x4 PUSH0 PUSH2 0x100 EXP DUP2 SLOAD DUP2 PUSH20 0xFFFFFFFFFFFFFFFFFFFFFFFFFFFFFFFFFFFFFFFF MUL NOT AND SWAP1 DUP4 PUSH20 0xFFFFFFFFFFFFFFFFFFFFFFFFFFFFFFFFFFFFFFFF AND MUL OR SWAP1 SSTORE POP DUP1 PUSH20 0xFFFFFFFFFFFFFFFFFFFFFFFFFFFFFFFFFFFFFFFF AND PUSH32 0xB74D956CF6EC7842D08EBF0AB19EC03A88C1EFD4A50EA4349D30F9C4CE512E98 PUSH1 0x40 MLOAD PUSH1 0x40 MLOAD DUP1 SWAP2 SUB SWAP1 LOG2 POP JUMP JUMPDEST PUSH1 0x3 PUSH0 SWAP1 SLOAD SWAP1 PUSH2 0x100 EXP SWAP1 DIV PUSH20 0xFFFFFFFFFFFFFFFFFFFFFFFFFFFFFFFFFFFFFFFF AND DUP2 JUMP JUMPDEST PUSH1 0x3 PUSH0 SWAP1 SLOAD SWAP1 PUSH2 0x100 EXP SWAP1 DIV PUSH20 0xFFFFFFFFFFFFFFFFFFFFFFFFFFFFFFFFFFFFFFFF AND PUSH20 0xFFFFFFFFFFFFFFFFFFFFFFFFFFFFFFFFFFFFFFFF AND CALLER PUSH20 0xFFFFFFFFFFFFFFFFFFFFFFFFFFFFFFFFFFFFFFFF AND EQ PUSH2 0xE5A JUMPI PUSH1 0x40 MLOAD PUSH32 0x8C379A000000000000000000000000000000000000000000000000000000000 DUP2 MSTORE PUSH1 0x4 ADD PUSH2 0xE51 SWAP1 PUSH2 0x34CE JUMP JUMPDEST PUSH1 0x40 MLOAD DUP1 SWAP2 SUB SWAP1 REVERT JUMPDEST PUSH0 PUSH1 0x4 PUSH0 SWAP1 SLOAD SWAP1 PUSH2 0x100 EXP SWAP1 DIV PUSH20 0xFFFFFFFFFFFFFFFFFFFFFFFFFFFFFFFFFFFFFFFF AND SWAP1 POP PUSH0 DUP2 PUSH20 0xFFFFFFFFFFFFFFFFFFFFFFFFFFFFFFFFFFFFFFFF AND PUSH4 0x70A08231 ADDRESS PUSH1 0x40 MLOAD DUP3 PUSH4 0xFFFFFFFF AND PUSH1 0xE0 SHL DUP2 MSTORE PUSH1 0x4 ADD PUSH2 0xEB9 SWAP2 SWAP1 PUSH2 0x328D JUMP JUMPDEST PUSH1 0x20 PUSH1 0x40 MLOAD DUP1 DUP4 SUB DUP2 DUP7 GAS STATICCALL ISZERO DUP1 ISZERO PUSH2 0xED4 JUMPI RETURNDATASIZE PUSH0 DUP1 RETURNDATACOPY RETURNDATASIZE PUSH0 REVERT JUMPDEST POP POP POP POP PUSH1 0x40 MLOAD RETURNDATASIZE PUSH1 0x1F NOT PUSH1 0x1F DUP3 ADD AND DUP3 ADD DUP1 PUSH1 0x40 MSTORE POP DUP2 ADD SWAP1 PUSH2 0xEF8 SWAP2 SWAP1 PUSH2 0x35F7 JUMP JUMPDEST SWAP1 POP PUSH0 DUP2 GT PUSH2 0xF3C JUMPI PUSH1 0x40 MLOAD PUSH32 0x8C379A000000000000000000000000000000000000000000000000000000000 DUP2 MSTORE PUSH1 0x4 ADD PUSH2 0xF33 SWAP1 PUSH2 0x374E JUMP JUMPDEST PUSH1 0x40 MLOAD DUP1 SWAP2 SUB SWAP1 REVERT JUMPDEST PUSH0 PUSH1 0x7 DUP1 SLOAD SWAP1 POP SWAP1 POP PUSH0 DUP1 DUP3 PUSH8 0xFFFFFFFFFFFFFFFF DUP2 GT ISZERO PUSH2 0xF61 JUMPI PUSH2 0xF60 PUSH2 0x2D8F JUMP JUMPDEST JUMPDEST PUSH1 0x40 MLOAD SWAP1 DUP1 DUP3 MSTORE DUP1 PUSH1 0x20 MUL PUSH1 0x20 ADD DUP3 ADD PUSH1 0x40 MSTORE DUP1 ISZERO PUSH2 0xF8F JUMPI DUP2 PUSH1 0x20 ADD PUSH1 0x20 DUP3 MUL DUP1 CALLDATASIZE DUP4 CALLDATACOPY DUP1 DUP3 ADD SWAP2 POP POP SWAP1 POP JUMPDEST POP SWAP1 POP PUSH0 DUP4 PUSH8 0xFFFFFFFFFFFFFFFF DUP2 GT ISZERO PUSH2 0xFAD JUMPI PUSH2 0xFAC PUSH2 0x2D8F JUMP JUMPDEST JUMPDEST PUSH1 0x40 MLOAD SWAP1 DUP1 DUP3 MSTORE DUP1 PUSH1 0x20 MUL PUSH1 0x20 ADD DUP3 ADD PUSH1 0x40 MSTORE DUP1 ISZERO PUSH2 0xFDB JUMPI DUP2 PUSH1 0x20 ADD PUSH1 0x20 DUP3 MUL DUP1 CALLDATASIZE DUP4 CALLDATACOPY DUP1 DUP3 ADD SWAP2 POP POP SWAP1 POP JUMPDEST POP SWAP1 POP PUSH0 DUP1 JUMPDEST DUP6 DUP2 LT ISZERO PUSH2 0x10E5 JUMPI PUSH0 PUSH1 0x7 DUP3 DUP2 SLOAD DUP2 LT PUSH2 0xFFE JUMPI PUSH2 0xFFD PUSH2 0x3649 JUMP JUMPDEST JUMPDEST SWAP1 PUSH0 MSTORE PUSH1 0x20 PUSH0 KECCAK256 ADD PUSH0 SWAP1 SLOAD SWAP1 PUSH2 0x100 EXP SWAP1 DIV PUSH20 0xFFFFFFFFFFFFFFFFFFFFFFFFFFFFFFFFFFFFFFFF AND SWAP1 POP PUSH0 PUSH2 0x1034 DUP3 PUSH1 0x2 PUSH2 0x500 JUMP JUMPDEST SWAP1 POP PUSH0 DUP2 GT ISZERO PUSH2 0x10D6 JUMPI DUP2 DUP7 DUP9 DUP2 MLOAD DUP2 LT PUSH2 0x1052 JUMPI PUSH2 0x1051 PUSH2 0x3649 JUMP JUMPDEST JUMPDEST PUSH1 0x20 MUL PUSH1 0x20 ADD ADD SWAP1 PUSH20 0xFFFFFFFFFFFFFFFFFFFFFFFFFFFFFFFFFFFFFFFF AND SWAP1 DUP2 PUSH20 0xFFFFFFFFFFFFFFFFFFFFFFFFFFFFFFFFFFFFFFFF AND DUP2 MSTORE POP POP DUP1 DUP6 DUP9 DUP2 MLOAD DUP2 LT PUSH2 0x10A0 JUMPI PUSH2 0x109F PUSH2 0x3649 JUMP JUMPDEST JUMPDEST PUSH1 0x20 MUL PUSH1 0x20 ADD ADD DUP2 DUP2 MSTORE POP POP PUSH1 0x5 SLOAD DUP2 PUSH2 0x10BA SWAP2 SWAP1 PUSH2 0x3799 JUMP JUMPDEST DUP5 PUSH2 0x10C5 SWAP2 SWAP1 PUSH2 0x37DA JUMP JUMPDEST SWAP4 POP DUP7 DUP1 PUSH2 0x10D2 SWAP1 PUSH2 0x380D JUMP JUMPDEST SWAP8 POP POP JUMPDEST POP POP DUP1 DUP1 PUSH1 0x1 ADD SWAP2 POP POP PUSH2 0xFE1 JUMP JUMPDEST POP PUSH0 DUP5 GT PUSH2 0x1128 JUMPI PUSH1 0x40 MLOAD PUSH32 0x8C379A000000000000000000000000000000000000000000000000000000000 DUP2 MSTORE PUSH1 0x4 ADD PUSH2 0x111F SWAP1 PUSH2 0x389E JUMP JUMPDEST PUSH1 0x40 MLOAD DUP1 SWAP2 SUB SWAP1 REVERT JUMPDEST DUP1 DUP7 LT ISZERO PUSH2 0x116B JUMPI PUSH1 0x40 MLOAD PUSH32 0x8C379A000000000000000000000000000000000000000000000000000000000 DUP2 MSTORE PUSH1 0x4 ADD PUSH2 0x1162 SWAP1 PUSH2 0x3906 JUMP JUMPDEST PUSH1 0x40 MLOAD DUP1 SWAP2 SUB SWAP1 REVERT JUMPDEST PUSH0 JUMPDEST DUP5 DUP2 LT ISZERO PUSH2 0x125B JUMPI PUSH0 PUSH1 0x5 SLOAD DUP5 DUP4 DUP2 MLOAD DUP2 LT PUSH2 0x118C JUMPI PUSH2 0x118B PUSH2 0x3649 JUMP JUMPDEST JUMPDEST PUSH1 0x20 MUL PUSH1 0x20 ADD ADD MLOAD PUSH2 0x119E SWAP2 SWAP1 PUSH2 0x3799 JUMP JUMPDEST SWAP1 POP PUSH2 0x11E5 DUP6 DUP4 DUP2 MLOAD DUP2 LT PUSH2 0x11B6 JUMPI PUSH2 0x11B5 PUSH2 0x3649 JUMP JUMPDEST JUMPDEST PUSH1 0x20 MUL PUSH1 0x20 ADD ADD MLOAD DUP3 DUP12 PUSH20 0xFFFFFFFFFFFFFFFFFFFFFFFFFFFFFFFFFFFFFFFF AND PUSH2 0x1868 SWAP1 SWAP3 SWAP2 SWAP1 PUSH4 0xFFFFFFFF AND JUMP JUMPDEST DUP5 DUP3 DUP2 MLOAD DUP2 LT PUSH2 0x11F8 JUMPI PUSH2 0x11F7 PUSH2 0x3649 JUMP JUMPDEST JUMPDEST PUSH1 0x20 MUL PUSH1 0x20 ADD ADD MLOAD PUSH20 0xFFFFFFFFFFFFFFFFFFFFFFFFFFFFFFFFFFFFFFFF AND PUSH32 0x16B0DA2FFCB90C6723317BD637D9AAD7F04711F42BBE0AC0918EBE10F1F9001C DUP3 PUSH1 0x40 MLOAD PUSH2 0x1245 SWAP2 SWAP1 PUSH2 0x2BB4 JUMP JUMPDEST PUSH1 0x40 MLOAD DUP1 SWAP2 SUB SWAP1 LOG2 POP DUP1 DUP1 PUSH1 0x1 ADD SWAP2 POP POP PUSH2 0x116D JUMP JUMPDEST POP POP POP POP POP POP POP POP JUMP JUMPDEST PUSH2 0x1277 PUSH2 0x1270 PUSH2 0x176D JUMP JUMPDEST DUP4 DUP4 PUSH2 0x190D JUMP JUMPDEST POP POP JUMP JUMPDEST PUSH1 0x1 DUP2 JUMP JUMPDEST PUSH0 PUSH1 0x1 PUSH0 DUP5 PUSH20 0xFFFFFFFFFFFFFFFFFFFFFFFFFFFFFFFFFFFFFFFF AND PUSH20 0xFFFFFFFFFFFFFFFFFFFFFFFFFFFFFFFFFFFFFFFF AND DUP2 MSTORE PUSH1 0x20 ADD SWAP1 DUP2 MSTORE PUSH1 0x20 ADD PUSH0 KECCAK256 PUSH0 DUP4 PUSH20 0xFFFFFFFFFFFFFFFFFFFFFFFFFFFFFFFFFFFFFFFF AND PUSH20 0xFFFFFFFFFFFFFFFFFFFFFFFFFFFFFFFFFFFFFFFF AND DUP2 MSTORE PUSH1 0x20 ADD SWAP1 DUP2 MSTORE PUSH1 0x20 ADD PUSH0 KECCAK256 PUSH0 SWAP1 SLOAD SWAP1 PUSH2 0x100 EXP SWAP1 DIV PUSH1 0xFF AND SWAP1 POP SWAP3 SWAP2 POP POP JUMP JUMPDEST PUSH0 PUSH2 0x1317 PUSH2 0x176D JUMP JUMPDEST SWAP1 POP DUP1 PUSH20 0xFFFFFFFFFFFFFFFFFFFFFFFFFFFFFFFFFFFFFFFF AND DUP7 PUSH20 0xFFFFFFFFFFFFFFFFFFFFFFFFFFFFFFFFFFFFFFFF AND EQ ISZERO DUP1 ISZERO PUSH2 0x135C JUMPI POP PUSH2 0x135A DUP7 DUP3 PUSH2 0x1280 JUMP JUMPDEST ISZERO JUMPDEST ISZERO PUSH2 0x13A0 JUMPI DUP1 DUP7 PUSH1 0x40 MLOAD PUSH32 0xE237D92200000000000000000000000000000000000000000000000000000000 DUP2 MSTORE PUSH1 0x4 ADD PUSH2 0x1397 SWAP3 SWAP2 SWAP1 PUSH2 0x35BC JUMP JUMPDEST PUSH1 0x40 MLOAD DUP1 SWAP2 SUB SWAP1 REVERT JUMPDEST PUSH2 0x13AD DUP7 DUP7 DUP7 DUP7 DUP7 PUSH2 0x1A76 JUMP JUMPDEST POP POP POP POP POP POP JUMP JUMPDEST PUSH1 0x3 PUSH0 SWAP1 SLOAD SWAP1 PUSH2 0x100 EXP SWAP1 DIV PUSH20 0xFFFFFFFFFFFFFFFFFFFFFFFFFFFFFFFFFFFFFFFF AND PUSH20 0xFFFFFFFFFFFFFFFFFFFFFFFFFFFFFFFFFFFFFFFF AND CALLER PUSH20 0xFFFFFFFFFFFFFFFFFFFFFFFFFFFFFFFFFFFFFFFF AND EQ PUSH2 0x1444 JUMPI PUSH1 0x40 MLOAD PUSH32 0x8C379A000000000000000000000000000000000000000000000000000000000 DUP2 MSTORE PUSH1 0x4 ADD PUSH2 0x143B SWAP1 PUSH2 0x34CE JUMP JUMPDEST PUSH1 0x40 MLOAD DUP1 SWAP2 SUB SWAP1 REVERT JUMPDEST DUP1 PUSH1 0x3 PUSH0 PUSH2 0x100 EXP DUP2 SLOAD DUP2 PUSH20 0xFFFFFFFFFFFFFFFFFFFFFFFFFFFFFFFFFFFFFFFF MUL NOT AND SWAP1 DUP4 PUSH20 0xFFFFFFFFFFFFFFFFFFFFFFFFFFFFFFFFFFFFFFFF AND MUL OR SWAP1 SSTORE POP DUP1 PUSH20 0xFFFFFFFFFFFFFFFFFFFFFFFFFFFFFFFFFFFFFFFF AND CALLER PUSH20 0xFFFFFFFFFFFFFFFFFFFFFFFFFFFFFFFFFFFFFFFF AND PUSH32 0x8BE0079C531659141344CD1FD0A4F28419497F9722A3DAAFE3B4186F6B6457E0 PUSH1 0x40 MLOAD PUSH1 0x40 MLOAD DUP1 SWAP2 SUB SWAP1 LOG3 POP JUMP JUMPDEST PUSH1 0x3 PUSH0 SWAP1 SLOAD SWAP1 PUSH2 0x100 EXP SWAP1 DIV PUSH20 0xFFFFFFFFFFFFFFFFFFFFFFFFFFFFFFFFFFFFFFFF AND PUSH20 0xFFFFFFFFFFFFFFFFFFFFFFFFFFFFFFFFFFFFFFFF AND CALLER PUSH20 0xFFFFFFFFFFFFFFFFFFFFFFFFFFFFFFFFFFFFFFFF AND EQ PUSH2 0x1570 JUMPI PUSH1 0x40 MLOAD PUSH32 0x8C379A000000000000000000000000000000000000000000000000000000000 DUP2 MSTORE PUSH1 0x4 ADD PUSH2 0x1567 SWAP1 PUSH2 0x34CE JUMP JUMPDEST PUSH1 0x40 MLOAD DUP1 SWAP2 SUB SWAP1 REVERT JUMPDEST PUSH2 0x157B DUP4 DUP4 DUP4 PUSH2 0x1B7C JUMP JUMPDEST POP POP POP JUMP JUMPDEST PUSH1 0x4 PUSH0 SWAP1 SLOAD SWAP1 PUSH2 0x100 EXP SWAP1 DIV PUSH20 0xFFFFFFFFFFFFFFFFFFFFFFFFFFFFFFFFFFFFFFFF AND DUP2 JUMP JUMPDEST PUSH0 PUSH32 0x1FFC9A700000000000000000000000000000000000000000000000000000000 PUSH28 0xFFFFFFFFFFFFFFFFFFFFFFFFFFFFFFFFFFFFFFFFFFFFFFFFFFFFFFFF NOT AND DUP3 PUSH28 0xFFFFFFFFFFFFFFFFFFFFFFFFFFFFFFFFFFFFFFFFFFFFFFFFFFFFFFFF NOT AND EQ SWAP1 POP SWAP2 SWAP1 POP JUMP JUMPDEST PUSH1 0x60 PUSH0 PUSH1 0x1 PUSH2 0x161C DUP5 PUSH2 0x1C1E JUMP JUMPDEST ADD SWAP1 POP PUSH0 DUP2 PUSH8 0xFFFFFFFFFFFFFFFF DUP2 GT ISZERO PUSH2 0x163A JUMPI PUSH2 0x1639 PUSH2 0x2D8F JUMP JUMPDEST JUMPDEST PUSH1 0x40 MLOAD SWAP1 DUP1 DUP3 MSTORE DUP1 PUSH1 0x1F ADD PUSH1 0x1F NOT AND PUSH1 0x20 ADD DUP3 ADD PUSH1 0x40 MSTORE DUP1 ISZERO PUSH2 0x166C JUMPI DUP2 PUSH1 0x20 ADD PUSH1 0x1 DUP3 MUL DUP1 CALLDATASIZE DUP4 CALLDATACOPY DUP1 DUP3 ADD SWAP2 POP POP SWAP1 POP JUMPDEST POP SWAP1 POP PUSH0 DUP3 PUSH1 0x20 ADD DUP3 ADD SWAP1 POP JUMPDEST PUSH1 0x1 ISZERO PUSH2 0x16CD JUMPI DUP1 DUP1 PUSH1 0x1 SWAP1 SUB SWAP2 POP POP PUSH32 0x3031323334353637383961626364656600000000000000000000000000000000 PUSH1 0xA DUP7 MOD BYTE DUP2 MSTORE8 PUSH1 0xA DUP6 DUP2 PUSH2 0x16C2 JUMPI PUSH2 0x16C1 PUSH2 0x3924 JUMP JUMPDEST JUMPDEST DIV SWAP5 POP PUSH0 DUP6 SUB PUSH2 0x1679 JUMPI JUMPDEST DUP2 SWAP4 POP POP POP POP SWAP2 SWAP1 POP JUMP JUMPDEST PUSH0 PUSH20 0xFFFFFFFFFFFFFFFFFFFFFFFFFFFFFFFFFFFFFFFF AND DUP5 PUSH20 0xFFFFFFFFFFFFFFFFFFFFFFFFFFFFFFFFFFFFFFFF AND SUB PUSH2 0x1748 JUMPI PUSH0 PUSH1 0x40 MLOAD PUSH32 0x57F447CE00000000000000000000000000000000000000000000000000000000 DUP2 MSTORE PUSH1 0x4 ADD PUSH2 0x173F SWAP2 SWAP1 PUSH2 0x328D JUMP JUMPDEST PUSH1 0x40 MLOAD DUP1 SWAP2 SUB SWAP1 REVERT JUMPDEST PUSH0 DUP1 PUSH2 0x1754 DUP6 DUP6 PUSH2 0x1D6F JUMP JUMPDEST SWAP2 POP SWAP2 POP PUSH2 0x1765 PUSH0 DUP8 DUP5 DUP5 DUP8 PUSH2 0x1D9F JUMP JUMPDEST POP POP POP POP POP POP JUMP JUMPDEST PUSH0 CALLER SWAP1 POP SWAP1 JUMP JUMPDEST PUSH0 PUSH20 0xFFFFFFFFFFFFFFFFFFFFFFFFFFFFFFFFFFFFFFFF AND DUP5 PUSH20 0xFFFFFFFFFFFFFFFFFFFFFFFFFFFFFFFFFFFFFFFF AND SUB PUSH2 0x17E4 JUMPI PUSH0 PUSH1 0x40 MLOAD PUSH32 0x57F447CE00000000000000000000000000000000000000000000000000000000 DUP2 MSTORE PUSH1 0x4 ADD PUSH2 0x17DB SWAP2 SWAP1 PUSH2 0x328D JUMP JUMPDEST PUSH1 0x40 MLOAD DUP1 SWAP2 SUB SWAP1 REVERT JUMPDEST PUSH0 PUSH20 0xFFFFFFFFFFFFFFFFFFFFFFFFFFFFFFFFFFFFFFFF AND DUP6 PUSH20 0xFFFFFFFFFFFFFFFFFFFFFFFFFFFFFFFFFFFFFFFF AND SUB PUSH2 0x1854 JUMPI PUSH0 PUSH1 0x40 MLOAD PUSH32 0x1A8351400000000000000000000000000000000000000000000000000000000 DUP2 MSTORE PUSH1 0x4 ADD PUSH2 0x184B SWAP2 SWAP1 PUSH2 0x328D JUMP JUMPDEST PUSH1 0x40 MLOAD DUP1 SWAP2 SUB SWAP1 REVERT JUMPDEST PUSH2 0x1861 DUP6 DUP6 DUP6 DUP6 DUP6 PUSH2 0x1D9F JUMP JUMPDEST POP POP POP POP POP JUMP JUMPDEST PUSH2 0x18E2 DUP4 DUP5 PUSH20 0xFFFFFFFFFFFFFFFFFFFFFFFFFFFFFFFFFFFFFFFF AND PUSH4 0xA9059CBB DUP6 DUP6 PUSH1 0x40 MLOAD PUSH1 0x24 ADD PUSH2 0x189B SWAP3 SWAP2 SWAP1 PUSH2 0x3951 JUMP JUMPDEST PUSH1 0x40 MLOAD PUSH1 0x20 DUP2 DUP4 SUB SUB DUP2 MSTORE SWAP1 PUSH1 0x40 MSTORE SWAP2 POP PUSH1 0xE0 SHL PUSH1 0x20 DUP3 ADD DUP1 MLOAD PUSH28 0xFFFFFFFFFFFFFFFFFFFFFFFFFFFFFFFFFFFFFFFFFFFFFFFFFFFFFFFF DUP4 DUP2 DUP4 AND OR DUP4 MSTORE POP POP POP POP PUSH2 0x1E4B JUMP JUMPDEST POP POP POP JUMP JUMPDEST PUSH0 PUSH1 0x20 DUP3 MUL PUSH1 0x20 DUP5 ADD ADD MLOAD SWAP1 POP SWAP3 SWAP2 POP POP JUMP JUMPDEST PUSH0 PUSH1 0x20 DUP3 MUL PUSH1 0x20 DUP5 ADD ADD MLOAD SWAP1 POP SWAP3 SWAP2 POP POP JUMP JUMPDEST PUSH0 PUSH20 0xFFFFFFFFFFFFFFFFFFFFFFFFFFFFFFFFFFFFFFFF AND DUP3 PUSH20 0xFFFFFFFFFFFFFFFFFFFFFFFFFFFFFFFFFFFFFFFF AND SUB PUSH2 0x197D JUMPI PUSH0 PUSH1 0x40 MLOAD PUSH32 0xCED3E10000000000000000000000000000000000000000000000000000000000 DUP2 MSTORE PUSH1 0x4 ADD PUSH2 0x1974 SWAP2 SWAP1 PUSH2 0x328D JUMP JUMPDEST PUSH1 0x40 MLOAD DUP1 SWAP2 SUB SWAP1 REVERT JUMPDEST DUP1 PUSH1 0x1 PUSH0 DUP6 PUSH20 0xFFFFFFFFFFFFFFFFFFFFFFFFFFFFFFFFFFFFFFFF AND PUSH20 0xFFFFFFFFFFFFFFFFFFFFFFFFFFFFFFFFFFFFFFFF AND DUP2 MSTORE PUSH1 0x20 ADD SWAP1 DUP2 MSTORE PUSH1 0x20 ADD PUSH0 KECCAK256 PUSH0 DUP5 PUSH20 0xFFFFFFFFFFFFFFFFFFFFFFFFFFFFFFFFFFFFFFFF AND PUSH20 0xFFFFFFFFFFFFFFFFFFFFFFFFFFFFFFFFFFFFFFFF AND DUP2 MSTORE PUSH1 0x20 ADD SWAP1 DUP2 MSTORE PUSH1 0x20 ADD PUSH0 KECCAK256 PUSH0 PUSH2 0x100 EXP DUP2 SLOAD DUP2 PUSH1 0xFF MUL NOT AND SWAP1 DUP4 ISZERO ISZERO MUL OR SWAP1 SSTORE POP DUP2 PUSH20 0xFFFFFFFFFFFFFFFFFFFFFFFFFFFFFFFFFFFFFFFF AND DUP4 PUSH20 0xFFFFFFFFFFFFFFFFFFFFFFFFFFFFFFFFFFFFFFFF AND PUSH32 0x17307EAB39AB6107E8899845AD3D59BD9653F200F220920489CA2B5937696C31 DUP4 PUSH1 0x40 MLOAD PUSH2 0x1A69 SWAP2 SWAP1 PUSH2 0x2C67 JUMP JUMPDEST PUSH1 0x40 MLOAD DUP1 SWAP2 SUB SWAP1 LOG3 POP POP POP JUMP JUMPDEST PUSH0 PUSH20 0xFFFFFFFFFFFFFFFFFFFFFFFFFFFFFFFFFFFFFFFF AND DUP5 PUSH20 0xFFFFFFFFFFFFFFFFFFFFFFFFFFFFFFFFFFFFFFFF AND SUB PUSH2 0x1AE6 JUMPI PUSH0 PUSH1 0x40 MLOAD PUSH32 0x57F447CE00000000000000000000000000000000000000000000000000000000 DUP2 MSTORE PUSH1 0x4 ADD PUSH2 0x1ADD SWAP2 SWAP1 PUSH2 0x328D JUMP JUMPDEST PUSH1 0x40 MLOAD DUP1 SWAP2 SUB SWAP1 REVERT JUMPDEST PUSH0 PUSH20 0xFFFFFFFFFFFFFFFFFFFFFFFFFFFFFFFFFFFFFFFF AND DUP6 PUSH20 0xFFFFFFFFFFFFFFFFFFFFFFFFFFFFFFFFFFFFFFFF AND SUB PUSH2 0x1B56 JUMPI PUSH0 PUSH1 0x40 MLOAD PUSH32 0x1A8351400000000000000000000000000000000000000000000000000000000 DUP2 MSTORE PUSH1 0x4 ADD PUSH2 0x1B4D SWAP2 SWAP1 PUSH2 0x328D JUMP JUMPDEST PUSH1 0x40 MLOAD DUP1 SWAP2 SUB SWAP1 REVERT JUMPDEST PUSH0 DUP1 PUSH2 0x1B62 DUP6 DUP6 PUSH2 0x1D6F JUMP JUMPDEST SWAP2 POP SWAP2 POP PUSH2 0x1B73 DUP8 DUP8 DUP5 DUP5 DUP8 PUSH2 0x1D9F JUMP JUMPDEST POP POP POP POP POP POP POP JUMP JUMPDEST PUSH0 PUSH20 0xFFFFFFFFFFFFFFFFFFFFFFFFFFFFFFFFFFFFFFFF AND DUP4 PUSH20 0xFFFFFFFFFFFFFFFFFFFFFFFFFFFFFFFFFFFFFFFF AND SUB PUSH2 0x1BEC JUMPI PUSH0 PUSH1 0x40 MLOAD PUSH32 0x1A8351400000000000000000000000000000000000000000000000000000000 DUP2 MSTORE PUSH1 0x4 ADD PUSH2 0x1BE3 SWAP2 SWAP1 PUSH2 0x328D JUMP JUMPDEST PUSH1 0x40 MLOAD DUP1 SWAP2 SUB SWAP1 REVERT JUMPDEST PUSH0 DUP1 PUSH2 0x1BF8 DUP5 DUP5 PUSH2 0x1D6F JUMP JUMPDEST SWAP2 POP SWAP2 POP PUSH2 0x1C17 DUP6 PUSH0 DUP5 DUP5 PUSH1 0x40 MLOAD DUP1 PUSH1 0x20 ADD PUSH1 0x40 MSTORE DUP1 PUSH0 DUP2 MSTORE POP PUSH2 0x1D9F JUMP JUMPDEST POP POP POP POP POP JUMP JUMPDEST PUSH0 DUP1 PUSH0 SWAP1 POP PUSH27 0x184F03E93FF9F4DAA797ED6E38ED64BF6A1F010000000000000000 DUP4 LT PUSH2 0x1C7A JUMPI PUSH27 0x184F03E93FF9F4DAA797ED6E38ED64BF6A1F010000000000000000 DUP4 DUP2 PUSH2 0x1C70 JUMPI PUSH2 0x1C6F PUSH2 0x3924 JUMP JUMPDEST JUMPDEST DIV SWAP3 POP PUSH1 0x40 DUP2 ADD SWAP1 POP JUMPDEST PUSH14 0x4EE2D6D415B85ACEF8100000000 DUP4 LT PUSH2 0x1CB7 JUMPI PUSH14 0x4EE2D6D415B85ACEF8100000000 DUP4 DUP2 PUSH2 0x1CAD JUMPI PUSH2 0x1CAC PUSH2 0x3924 JUMP JUMPDEST JUMPDEST DIV SWAP3 POP PUSH1 0x20 DUP2 ADD SWAP1 POP JUMPDEST PUSH7 0x2386F26FC10000 DUP4 LT PUSH2 0x1CE6 JUMPI PUSH7 0x2386F26FC10000 DUP4 DUP2 PUSH2 0x1CDC JUMPI PUSH2 0x1CDB PUSH2 0x3924 JUMP JUMPDEST JUMPDEST DIV SWAP3 POP PUSH1 0x10 DUP2 ADD SWAP1 POP JUMPDEST PUSH4 0x5F5E100 DUP4 LT PUSH2 0x1D0F JUMPI PUSH4 0x5F5E100 DUP4 DUP2 PUSH2 0x1D05 JUMPI PUSH2 0x1D04 PUSH2 0x3924 JUMP JUMPDEST JUMPDEST DIV SWAP3 POP PUSH1 0x8 DUP2 ADD SWAP1 POP JUMPDEST PUSH2 0x2710 DUP4 LT PUSH2 0x1D34 JUMPI PUSH2 0x2710 DUP4 DUP2 PUSH2 0x1D2A JUMPI PUSH2 0x1D29 PUSH2 0x3924 JUMP JUMPDEST JUMPDEST DIV SWAP3 POP PUSH1 0x4 DUP2 ADD SWAP1 POP JUMPDEST PUSH1 0x64 DUP4 LT PUSH2 0x1D57 JUMPI PUSH1 0x64 DUP4 DUP2 PUSH2 0x1D4D JUMPI PUSH2 0x1D4C PUSH2 0x3924 JUMP JUMPDEST JUMPDEST DIV SWAP3 POP PUSH1 0x2 DUP2 ADD SWAP1 POP JUMPDEST PUSH1 0xA DUP4 LT PUSH2 0x1D66 JUMPI PUSH1 0x1 DUP2 ADD SWAP1 POP JUMPDEST DUP1 SWAP2 POP POP SWAP2 SWAP1 POP JUMP JUMPDEST PUSH1 0x60 DUP1 PUSH1 0x40 MLOAD SWAP2 POP PUSH1 0x1 DUP3 MSTORE DUP4 PUSH1 0x20 DUP4 ADD MSTORE PUSH1 0x40 DUP3 ADD SWAP1 POP PUSH1 0x1 DUP2 MSTORE DUP3 PUSH1 0x20 DUP3 ADD MSTORE PUSH1 0x40 DUP2 ADD PUSH1 0x40 MSTORE SWAP3 POP SWAP3 SWAP1 POP JUMP JUMPDEST PUSH2 0x1DAB DUP6 DUP6 DUP6 DUP6 PUSH2 0x1EE6 JUMP JUMPDEST PUSH0 PUSH20 0xFFFFFFFFFFFFFFFFFFFFFFFFFFFFFFFFFFFFFFFF AND DUP5 PUSH20 0xFFFFFFFFFFFFFFFFFFFFFFFFFFFFFFFFFFFFFFFF AND EQ PUSH2 0x1E44 JUMPI PUSH0 PUSH2 0x1DE7 PUSH2 0x176D JUMP JUMPDEST SWAP1 POP PUSH1 0x1 DUP5 MLOAD SUB PUSH2 0x1E33 JUMPI PUSH0 PUSH2 0x1E06 PUSH0 DUP7 PUSH2 0x18FA SWAP1 SWAP2 SWAP1 PUSH4 0xFFFFFFFF AND JUMP JUMPDEST SWAP1 POP PUSH0 PUSH2 0x1E1C PUSH0 DUP7 PUSH2 0x18FA SWAP1 SWAP2 SWAP1 PUSH4 0xFFFFFFFF AND JUMP JUMPDEST SWAP1 POP PUSH2 0x1E2C DUP4 DUP10 DUP10 DUP6 DUP6 DUP10 PUSH2 0x1F36 JUMP JUMPDEST POP POP PUSH2 0x1E42 JUMP JUMPDEST PUSH2 0x1E41 DUP2 DUP8 DUP8 DUP8 DUP8 DUP8 PUSH2 0x20E5 JUMP JUMPDEST JUMPDEST POP JUMPDEST POP POP POP POP POP JUMP JUMPDEST PUSH0 DUP1 PUSH1 0x20 PUSH0 DUP5 MLOAD PUSH1 0x20 DUP7 ADD PUSH0 DUP9 GAS CALL DUP1 PUSH2 0x1E6A JUMPI PUSH1 0x40 MLOAD RETURNDATASIZE PUSH0 DUP3 RETURNDATACOPY RETURNDATASIZE DUP2 REVERT JUMPDEST RETURNDATASIZE SWAP3 POP PUSH0 MLOAD SWAP2 POP POP PUSH0 DUP3 EQ PUSH2 0x1E83 JUMPI PUSH1 0x1 DUP2 EQ ISZERO PUSH2 0x1E9E JUMP JUMPDEST PUSH0 DUP5 PUSH20 0xFFFFFFFFFFFFFFFFFFFFFFFFFFFFFFFFFFFFFFFF AND EXTCODESIZE EQ JUMPDEST ISZERO PUSH2 0x1EE0 JUMPI DUP4 PUSH1 0x40 MLOAD PUSH32 0x5274AFE700000000000000000000000000000000000000000000000000000000 DUP2 MSTORE PUSH1 0x4 ADD PUSH2 0x1ED7 SWAP2 SWAP1 PUSH2 0x328D JUMP JUMPDEST PUSH1 0x40 MLOAD DUP1 SWAP2 SUB SWAP1 REVERT JUMPDEST POP POP POP POP JUMP JUMPDEST PUSH2 0x1EF2 DUP5 DUP5 DUP5 DUP5 PUSH2 0x2294 JUMP JUMPDEST PUSH0 JUMPDEST DUP3 MLOAD DUP2 LT ISZERO PUSH2 0x1F2F JUMPI PUSH2 0x1F22 DUP6 DUP6 DUP6 DUP5 DUP2 MLOAD DUP2 LT PUSH2 0x1F15 JUMPI PUSH2 0x1F14 PUSH2 0x3649 JUMP JUMPDEST JUMPDEST PUSH1 0x20 MUL PUSH1 0x20 ADD ADD MLOAD PUSH2 0x2624 JUMP JUMPDEST DUP1 DUP1 PUSH1 0x1 ADD SWAP2 POP POP PUSH2 0x1EF4 JUMP JUMPDEST POP POP POP POP POP JUMP JUMPDEST PUSH0 DUP5 PUSH20 0xFFFFFFFFFFFFFFFFFFFFFFFFFFFFFFFFFFFFFFFF AND EXTCODESIZE GT ISZERO PUSH2 0x20DD JUMPI DUP4 PUSH20 0xFFFFFFFFFFFFFFFFFFFFFFFFFFFFFFFFFFFFFFFF AND PUSH4 0xF23A6E61 DUP8 DUP8 DUP7 DUP7 DUP7 PUSH1 0x40 MLOAD DUP7 PUSH4 0xFFFFFFFF AND PUSH1 0xE0 SHL DUP2 MSTORE PUSH1 0x4 ADD PUSH2 0x1F96 SWAP6 SWAP5 SWAP4 SWAP3 SWAP2 SWAP1 PUSH2 0x39CA JUMP JUMPDEST PUSH1 0x20 PUSH1 0x40 MLOAD DUP1 DUP4 SUB DUP2 PUSH0 DUP8 GAS CALL SWAP3 POP POP POP DUP1 ISZERO PUSH2 0x1FD1 JUMPI POP PUSH1 0x40 MLOAD RETURNDATASIZE PUSH1 0x1F NOT PUSH1 0x1F DUP3 ADD AND DUP3 ADD DUP1 PUSH1 0x40 MSTORE POP DUP2 ADD SWAP1 PUSH2 0x1FCE SWAP2 SWAP1 PUSH2 0x3A36 JUMP JUMPDEST PUSH1 0x1 JUMPDEST PUSH2 0x2052 JUMPI RETURNDATASIZE DUP1 PUSH0 DUP2 EQ PUSH2 0x1FFF JUMPI PUSH1 0x40 MLOAD SWAP2 POP PUSH1 0x1F NOT PUSH1 0x3F RETURNDATASIZE ADD AND DUP3 ADD PUSH1 0x40 MSTORE RETURNDATASIZE DUP3 MSTORE RETURNDATASIZE PUSH0 PUSH1 0x20 DUP5 ADD RETURNDATACOPY PUSH2 0x2004 JUMP JUMPDEST PUSH1 0x60 SWAP2 POP JUMPDEST POP PUSH0 DUP2 MLOAD SUB PUSH2 0x204A JUMPI DUP5 PUSH1 0x40 MLOAD PUSH32 0x57F447CE00000000000000000000000000000000000000000000000000000000 DUP2 MSTORE PUSH1 0x4 ADD PUSH2 0x2041 SWAP2 SWAP1 PUSH2 0x328D JUMP JUMPDEST PUSH1 0x40 MLOAD DUP1 SWAP2 SUB SWAP1 REVERT JUMPDEST DUP1 MLOAD DUP2 PUSH1 0x20 ADD REVERT JUMPDEST PUSH4 0xF23A6E61 PUSH1 0xE0 SHL PUSH28 0xFFFFFFFFFFFFFFFFFFFFFFFFFFFFFFFFFFFFFFFFFFFFFFFFFFFFFFFF NOT AND DUP2 PUSH28 0xFFFFFFFFFFFFFFFFFFFFFFFFFFFFFFFFFFFFFFFFFFFFFFFFFFFFFFFF NOT AND EQ PUSH2 0x20DB JUMPI DUP5 PUSH1 0x40 MLOAD PUSH32 0x57F447CE00000000000000000000000000000000000000000000000000000000 DUP2 MSTORE PUSH1 0x4 ADD PUSH2 0x20D2 SWAP2 SWAP1 PUSH2 0x328D JUMP JUMPDEST PUSH1 0x40 MLOAD DUP1 SWAP2 SUB SWAP1 REVERT JUMPDEST POP JUMPDEST POP POP POP POP POP POP JUMP JUMPDEST PUSH0 DUP5 PUSH20 0xFFFFFFFFFFFFFFFFFFFFFFFFFFFFFFFFFFFFFFFF AND EXTCODESIZE GT ISZERO PUSH2 0x228C JUMPI DUP4 PUSH20 0xFFFFFFFFFFFFFFFFFFFFFFFFFFFFFFFFFFFFFFFF AND PUSH4 0xBC197C81 DUP8 DUP8 DUP7 DUP7 DUP7 PUSH1 0x40 MLOAD DUP7 PUSH4 0xFFFFFFFF AND PUSH1 0xE0 SHL DUP2 MSTORE PUSH1 0x4 ADD PUSH2 0x2145 SWAP6 SWAP5 SWAP4 SWAP3 SWAP2 SWAP1 PUSH2 0x3A61 JUMP JUMPDEST PUSH1 0x20 PUSH1 0x40 MLOAD DUP1 DUP4 SUB DUP2 PUSH0 DUP8 GAS CALL SWAP3 POP POP POP DUP1 ISZERO PUSH2 0x2180 JUMPI POP PUSH1 0x40 MLOAD RETURNDATASIZE PUSH1 0x1F NOT PUSH1 0x1F DUP3 ADD AND DUP3 ADD DUP1 PUSH1 0x40 MSTORE POP DUP2 ADD SWAP1 PUSH2 0x217D SWAP2 SWAP1 PUSH2 0x3A36 JUMP JUMPDEST PUSH1 0x1 JUMPDEST PUSH2 0x2201 JUMPI RETURNDATASIZE DUP1 PUSH0 DUP2 EQ PUSH2 0x21AE JUMPI PUSH1 0x40 MLOAD SWAP2 POP PUSH1 0x1F NOT PUSH1 0x3F RETURNDATASIZE ADD AND DUP3 ADD PUSH1 0x40 MSTORE RETURNDATASIZE DUP3 MSTORE RETURNDATASIZE PUSH0 PUSH1 0x20 DUP5 ADD RETURNDATACOPY PUSH2 0x21B3 JUMP JUMPDEST PUSH1 0x60 SWAP2 POP JUMPDEST POP PUSH0 DUP2 MLOAD SUB PUSH2 0x21F9 JUMPI DUP5 PUSH1 0x40 MLOAD PUSH32 0x57F447CE00000000000000000000000000000000000000000000000000000000 DUP2 MSTORE PUSH1 0x4 ADD PUSH2 0x21F0 SWAP2 SWAP1 PUSH2 0x328D JUMP JUMPDEST PUSH1 0x40 MLOAD DUP1 SWAP2 SUB SWAP1 REVERT JUMPDEST DUP1 MLOAD DUP2 PUSH1 0x20 ADD REVERT JUMPDEST PUSH4 0xBC197C81 PUSH1 0xE0 SHL PUSH28 0xFFFFFFFFFFFFFFFFFFFFFFFFFFFFFFFFFFFFFFFFFFFFFFFFFFFFFFFF NOT AND DUP2 PUSH28 0xFFFFFFFFFFFFFFFFFFFFFFFFFFFFFFFFFFFFFFFFFFFFFFFFFFFFFFFF NOT AND EQ PUSH2 0x228A JUMPI DUP5 PUSH1 0x40 MLOAD PUSH32 0x57F447CE00000000000000000000000000000000000000000000000000000000 DUP2 MSTORE PUSH1 0x4 ADD PUSH2 0x2281 SWAP2 SWAP1 PUSH2 0x328D JUMP JUMPDEST PUSH1 0x40 MLOAD DUP1 SWAP2 SUB SWAP1 REVERT JUMPDEST POP JUMPDEST POP POP POP POP POP POP JUMP JUMPDEST DUP1 MLOAD DUP3 MLOAD EQ PUSH2 0x22DE JUMPI DUP2 MLOAD DUP2 MLOAD PUSH1 0x40 MLOAD PUSH32 0x5B05999100000000000000000000000000000000000000000000000000000000 DUP2 MSTORE PUSH1 0x4 ADD PUSH2 0x22D5 SWAP3 SWAP2 SWAP1 PUSH2 0x3622 JUMP JUMPDEST PUSH1 0x40 MLOAD DUP1 SWAP2 SUB SWAP1 REVERT JUMPDEST PUSH0 PUSH2 0x22E7 PUSH2 0x176D JUMP JUMPDEST SWAP1 POP PUSH0 JUMPDEST DUP4 MLOAD DUP2 LT ISZERO PUSH2 0x24E3 JUMPI PUSH0 PUSH2 0x2308 DUP3 DUP7 PUSH2 0x18FA SWAP1 SWAP2 SWAP1 PUSH4 0xFFFFFFFF AND JUMP JUMPDEST SWAP1 POP PUSH0 PUSH2 0x231E DUP4 DUP7 PUSH2 0x18FA SWAP1 SWAP2 SWAP1 PUSH4 0xFFFFFFFF AND JUMP JUMPDEST SWAP1 POP PUSH0 PUSH20 0xFFFFFFFFFFFFFFFFFFFFFFFFFFFFFFFFFFFFFFFF AND DUP9 PUSH20 0xFFFFFFFFFFFFFFFFFFFFFFFFFFFFFFFFFFFFFFFF AND EQ PUSH2 0x2441 JUMPI PUSH0 DUP1 PUSH0 DUP5 DUP2 MSTORE PUSH1 0x20 ADD SWAP1 DUP2 MSTORE PUSH1 0x20 ADD PUSH0 KECCAK256 PUSH0 DUP11 PUSH20 0xFFFFFFFFFFFFFFFFFFFFFFFFFFFFFFFFFFFFFFFF AND PUSH20 0xFFFFFFFFFFFFFFFFFFFFFFFFFFFFFFFFFFFFFFFF AND DUP2 MSTORE PUSH1 0x20 ADD SWAP1 DUP2 MSTORE PUSH1 0x20 ADD PUSH0 KECCAK256 SLOAD SWAP1 POP DUP2 DUP2 LT ISZERO PUSH2 0x23ED JUMPI DUP9 DUP2 DUP4 DUP6 PUSH1 0x40 MLOAD PUSH32 0x3DEE4C500000000000000000000000000000000000000000000000000000000 DUP2 MSTORE PUSH1 0x4 ADD PUSH2 0x23E4 SWAP5 SWAP4 SWAP3 SWAP2 SWAP1 PUSH2 0x3AC7 JUMP JUMPDEST PUSH1 0x40 MLOAD DUP1 SWAP2 SUB SWAP1 REVERT JUMPDEST DUP2 DUP2 SUB PUSH0 DUP1 DUP6 DUP2 MSTORE PUSH1 0x20 ADD SWAP1 DUP2 MSTORE PUSH1 0x20 ADD PUSH0 KECCAK256 PUSH0 DUP12 PUSH20 0xFFFFFFFFFFFFFFFFFFFFFFFFFFFFFFFFFFFFFFFF AND PUSH20 0xFFFFFFFFFFFFFFFFFFFFFFFFFFFFFFFFFFFFFFFF AND DUP2 MSTORE PUSH1 0x20 ADD SWAP1 DUP2 MSTORE PUSH1 0x20 ADD PUSH0 KECCAK256 DUP2 SWAP1 SSTORE POP POP JUMPDEST PUSH0 PUSH20 0xFFFFFFFFFFFFFFFFFFFFFFFFFFFFFFFFFFFFFFFF AND DUP8 PUSH20 0xFFFFFFFFFFFFFFFFFFFFFFFFFFFFFFFFFFFFFFFF AND EQ PUSH2 0x24D6 JUMPI DUP1 PUSH0 DUP1 DUP5 DUP2 MSTORE PUSH1 0x20 ADD SWAP1 DUP2 MSTORE PUSH1 0x20 ADD PUSH0 KECCAK256 PUSH0 DUP10 PUSH20 0xFFFFFFFFFFFFFFFFFFFFFFFFFFFFFFFFFFFFFFFF AND PUSH20 0xFFFFFFFFFFFFFFFFFFFFFFFFFFFFFFFFFFFFFFFF AND DUP2 MSTORE PUSH1 0x20 ADD SWAP1 DUP2 MSTORE PUSH1 0x20 ADD PUSH0 KECCAK256 PUSH0 DUP3 DUP3 SLOAD PUSH2 0x24CE SWAP2 SWAP1 PUSH2 0x37DA JUMP JUMPDEST SWAP3 POP POP DUP2 SWAP1 SSTORE POP JUMPDEST POP POP DUP1 PUSH1 0x1 ADD SWAP1 POP PUSH2 0x22EB JUMP JUMPDEST POP PUSH1 0x1 DUP4 MLOAD SUB PUSH2 0x259E JUMPI PUSH0 PUSH2 0x2501 PUSH0 DUP6 PUSH2 0x18FA SWAP1 SWAP2 SWAP1 PUSH4 0xFFFFFFFF AND JUMP JUMPDEST SWAP1 POP PUSH0 PUSH2 0x2517 PUSH0 DUP6 PUSH2 0x18FA SWAP1 SWAP2 SWAP1 PUSH4 0xFFFFFFFF AND JUMP JUMPDEST SWAP1 POP DUP6 PUSH20 0xFFFFFFFFFFFFFFFFFFFFFFFFFFFFFFFFFFFFFFFF AND DUP8 PUSH20 0xFFFFFFFFFFFFFFFFFFFFFFFFFFFFFFFFFFFFFFFF AND DUP5 PUSH20 0xFFFFFFFFFFFFFFFFFFFFFFFFFFFFFFFFFFFFFFFF AND PUSH32 0xC3D58168C5AE7397731D063D5BBF3D657854427343F4C083240F7AACAA2D0F62 DUP6 DUP6 PUSH1 0x40 MLOAD PUSH2 0x258F SWAP3 SWAP2 SWAP1 PUSH2 0x3622 JUMP JUMPDEST PUSH1 0x40 MLOAD DUP1 SWAP2 SUB SWAP1 LOG4 POP POP PUSH2 0x261D JUMP JUMPDEST DUP4 PUSH20 0xFFFFFFFFFFFFFFFFFFFFFFFFFFFFFFFFFFFFFFFF AND DUP6 PUSH20 0xFFFFFFFFFFFFFFFFFFFFFFFFFFFFFFFFFFFFFFFF AND DUP3 PUSH20 0xFFFFFFFFFFFFFFFFFFFFFFFFFFFFFFFFFFFFFFFF AND PUSH32 0x4A39DC06D4C0DBC64B70AF90FD698A233A518AA5D07E595D983B8C0526C8F7FB DUP7 DUP7 PUSH1 0x40 MLOAD PUSH2 0x2614 SWAP3 SWAP2 SWAP1 PUSH2 0x3B0A JUMP JUMPDEST PUSH1 0x40 MLOAD DUP1 SWAP2 SUB SWAP1 LOG4 JUMPDEST POP POP POP POP POP JUMP JUMPDEST PUSH1 0x2 DUP2 SUB PUSH2 0x2947 JUMPI PUSH0 PUSH20 0xFFFFFFFFFFFFFFFFFFFFFFFFFFFFFFFFFFFFFFFF AND DUP3 PUSH20 0xFFFFFFFFFFFFFFFFFFFFFFFFFFFFFFFFFFFFFFFF AND EQ ISZERO DUP1 ISZERO PUSH2 0x2670 JUMPI POP PUSH0 PUSH2 0x266E DUP4 DUP4 PUSH2 0x500 JUMP JUMPDEST GT JUMPDEST DUP1 ISZERO PUSH2 0x26C3 JUMPI POP PUSH1 0x6 PUSH0 DUP4 PUSH20 0xFFFFFFFFFFFFFFFFFFFFFFFFFFFFFFFFFFFFFFFF AND PUSH20 0xFFFFFFFFFFFFFFFFFFFFFFFFFFFFFFFFFFFFFFFF AND DUP2 MSTORE PUSH1 0x20 ADD SWAP1 DUP2 MSTORE PUSH1 0x20 ADD PUSH0 KECCAK256 PUSH0 SWAP1 SLOAD SWAP1 PUSH2 0x100 EXP SWAP1 DIV PUSH1 0xFF AND ISZERO JUMPDEST ISZERO PUSH2 0x280A JUMPI PUSH2 0x2710 PUSH1 0x7 DUP1 SLOAD SWAP1 POP LT PUSH2 0x2711 JUMPI PUSH1 0x40 MLOAD PUSH32 0x8C379A000000000000000000000000000000000000000000000000000000000 DUP2 MSTORE PUSH1 0x4 ADD PUSH2 0x2708 SWAP1 PUSH2 0x359E JUMP JUMPDEST PUSH1 0x40 MLOAD DUP1 SWAP2 SUB SWAP1 REVERT JUMPDEST PUSH1 0x1 PUSH1 0x6 PUSH0 DUP5 PUSH20 0xFFFFFFFFFFFFFFFFFFFFFFFFFFFFFFFFFFFFFFFF AND PUSH20 0xFFFFFFFFFFFFFFFFFFFFFFFFFFFFFFFFFFFFFFFF AND DUP2 MSTORE PUSH1 0x20 ADD SWAP1 DUP2 MSTORE PUSH1 0x20 ADD PUSH0 KECCAK256 PUSH0 PUSH2 0x100 EXP DUP2 SLOAD DUP2 PUSH1 0xFF MUL NOT AND SWAP1 DUP4 ISZERO ISZERO MUL OR SWAP1 SSTORE POP PUSH1 0x7 DUP3 SWAP1 DUP1 PUSH1 0x1 DUP2 SLOAD ADD DUP1 DUP3 SSTORE DUP1 SWAP2 POP POP PUSH1 0x1 SWAP1 SUB SWAP1 PUSH0 MSTORE PUSH1 0x20 PUSH0 KECCAK256 ADD PUSH0 SWAP1 SWAP2 SWAP1 SWAP2 SWAP1 SWAP2 PUSH2 0x100 EXP DUP2 SLOAD DUP2 PUSH20 0xFFFFFFFFFFFFFFFFFFFFFFFFFFFFFFFFFFFFFFFF MUL NOT AND SWAP1 DUP4 PUSH20 0xFFFFFFFFFFFFFFFFFFFFFFFFFFFFFFFFFFFFFFFF AND MUL OR SWAP1 SSTORE POP DUP2 PUSH20 0xFFFFFFFFFFFFFFFFFFFFFFFFFFFFFFFFFFFFFFFF AND PUSH32 0x9894D458CF29E8BC4EB7E591BAC54B31DC90125DFA852474419972AB4347DD12 PUSH1 0x40 MLOAD PUSH1 0x40 MLOAD DUP1 SWAP2 SUB SWAP1 LOG2 JUMPDEST PUSH0 PUSH20 0xFFFFFFFFFFFFFFFFFFFFFFFFFFFFFFFFFFFFFFFF AND DUP4 PUSH20 0xFFFFFFFFFFFFFFFFFFFFFFFFFFFFFFFFFFFFFFFF AND EQ ISZERO DUP1 ISZERO PUSH2 0x284E JUMPI POP PUSH0 PUSH2 0x284C DUP5 DUP4 PUSH2 0x500 JUMP JUMPDEST EQ JUMPDEST DUP1 ISZERO PUSH2 0x28A0 JUMPI POP PUSH1 0x6 PUSH0 DUP5 PUSH20 0xFFFFFFFFFFFFFFFFFFFFFFFFFFFFFFFFFFFFFFFF AND PUSH20 0xFFFFFFFFFFFFFFFFFFFFFFFFFFFFFFFFFFFFFFFF AND DUP2 MSTORE PUSH1 0x20 ADD SWAP1 DUP2 MSTORE PUSH1 0x20 ADD PUSH0 KECCAK256 PUSH0 SWAP1 SLOAD SWAP1 PUSH2 0x100 EXP SWAP1 DIV PUSH1 0xFF AND JUMPDEST ISZERO PUSH2 0x2946 JUMPI PUSH0 PUSH1 0x6 PUSH0 DUP6 PUSH20 0xFFFFFFFFFFFFFFFFFFFFFFFFFFFFFFFFFFFFFFFF AND PUSH20 0xFFFFFFFFFFFFFFFFFFFFFFFFFFFFFFFFFFFFFFFF AND DUP2 MSTORE PUSH1 0x20 ADD SWAP1 DUP2 MSTORE PUSH1 0x20 ADD PUSH0 KECCAK256 PUSH0 PUSH2 0x100 EXP DUP2 SLOAD DUP2 PUSH1 0xFF MUL NOT AND SWAP1 DUP4 ISZERO ISZERO MUL OR SWAP1 SSTORE POP PUSH2 0x2902 DUP4 PUSH2 0x294C JUMP JUMPDEST DUP3 PUSH20 0xFFFFFFFFFFFFFFFFFFFFFFFFFFFFFFFFFFFFFFFF AND PUSH32 0xD9BC583D1445615D8B795B7374F03FF79EFA83B6359A91331EFD95E4CF023AB6 PUSH1 0x40 MLOAD PUSH1 0x40 MLOAD DUP1 SWAP2 SUB SWAP1 LOG2 JUMPDEST JUMPDEST POP POP POP JUMP JUMPDEST PUSH0 PUSH1 0x7 DUP1 SLOAD SWAP1 POP SWAP1 POP PUSH0 JUMPDEST DUP2 DUP2 LT ISZERO PUSH2 0x2AC4 JUMPI DUP3 PUSH20 0xFFFFFFFFFFFFFFFFFFFFFFFFFFFFFFFFFFFFFFFF AND PUSH1 0x7 DUP3 DUP2 SLOAD DUP2 LT PUSH2 0x298A JUMPI PUSH2 0x2989 PUSH2 0x3649 JUMP JUMPDEST JUMPDEST SWAP1 PUSH0 MSTORE PUSH1 0x20 PUSH0 KECCAK256 ADD PUSH0 SWAP1 SLOAD SWAP1 PUSH2 0x100 EXP SWAP1 DIV PUSH20 0xFFFFFFFFFFFFFFFFFFFFFFFFFFFFFFFFFFFFFFFF AND PUSH20 0xFFFFFFFFFFFFFFFFFFFFFFFFFFFFFFFFFFFFFFFF AND SUB PUSH2 0x2AB7 JUMPI PUSH1 0x7 PUSH1 0x1 DUP4 PUSH2 0x29DC SWAP2 SWAP1 PUSH2 0x3B3F JUMP JUMPDEST DUP2 SLOAD DUP2 LT PUSH2 0x29ED JUMPI PUSH2 0x29EC PUSH2 0x3649 JUMP JUMPDEST JUMPDEST SWAP1 PUSH0 MSTORE PUSH1 0x20 PUSH0 KECCAK256 ADD PUSH0 SWAP1 SLOAD SWAP1 PUSH2 0x100 EXP SWAP1 DIV PUSH20 0xFFFFFFFFFFFFFFFFFFFFFFFFFFFFFFFFFFFFFFFF AND PUSH1 0x7 DUP3 DUP2 SLOAD DUP2 LT PUSH2 0x2A29 JUMPI PUSH2 0x2A28 PUSH2 0x3649 JUMP JUMPDEST JUMPDEST SWAP1 PUSH0 MSTORE PUSH1 0x20 PUSH0 KECCAK256 ADD PUSH0 PUSH2 0x100 EXP DUP2 SLOAD DUP2 PUSH20 0xFFFFFFFFFFFFFFFFFFFFFFFFFFFFFFFFFFFFFFFF MUL NOT AND SWAP1 DUP4 PUSH20 0xFFFFFFFFFFFFFFFFFFFFFFFFFFFFFFFFFFFFFFFF AND MUL OR SWAP1 SSTORE POP PUSH1 0x7 DUP1 SLOAD DUP1 PUSH2 0x2A80 JUMPI PUSH2 0x2A7F PUSH2 0x3B72 JUMP JUMPDEST JUMPDEST PUSH1 0x1 SWAP1 SUB DUP2 DUP2 SWAP1 PUSH0 MSTORE PUSH1 0x20 PUSH0 KECCAK256 ADD PUSH0 PUSH2 0x100 EXP DUP2 SLOAD SWAP1 PUSH20 0xFFFFFFFFFFFFFFFFFFFFFFFFFFFFFFFFFFFFFFFF MUL NOT AND SWAP1 SSTORE SWAP1 SSTORE PUSH2 0x2AC4 JUMP JUMPDEST DUP1 DUP1 PUSH1 0x1 ADD SWAP2 POP POP PUSH2 0x2957 JUMP JUMPDEST POP POP POP JUMP JUMPDEST PUSH0 PUSH1 0x40 MLOAD SWAP1 POP SWAP1 JUMP JUMPDEST PUSH0 DUP1 REVERT JUMPDEST PUSH0 DUP1 REVERT JUMPDEST PUSH0 PUSH20 0xFFFFFFFFFFFFFFFFFFFFFFFFFFFFFFFFFFFFFFFF DUP3 AND SWAP1 POP SWAP2 SWAP1 POP JUMP JUMPDEST PUSH0 PUSH2 0x2B03 DUP3 PUSH2 0x2ADA JUMP JUMPDEST SWAP1 POP SWAP2 SWAP1 POP JUMP JUMPDEST PUSH2 0x2B13 DUP2 PUSH2 0x2AF9 JUMP JUMPDEST DUP2 EQ PUSH2 0x2B1D JUMPI PUSH0 DUP1 REVERT JUMPDEST POP JUMP JUMPDEST PUSH0 DUP2 CALLDATALOAD SWAP1 POP PUSH2 0x2B2E DUP2 PUSH2 0x2B0A JUMP JUMPDEST SWAP3 SWAP2 POP POP JUMP JUMPDEST PUSH0 DUP2 SWAP1 POP SWAP2 SWAP1 POP JUMP JUMPDEST PUSH2 0x2B46 DUP2 PUSH2 0x2B34 JUMP JUMPDEST DUP2 EQ PUSH2 0x2B50 JUMPI PUSH0 DUP1 REVERT JUMPDEST POP JUMP JUMPDEST PUSH0 DUP2 CALLDATALOAD SWAP1 POP PUSH2 0x2B61 DUP2 PUSH2 0x2B3D JUMP JUMPDEST SWAP3 SWAP2 POP POP JUMP JUMPDEST PUSH0 DUP1 PUSH1 0x40 DUP4 DUP6 SUB SLT ISZERO PUSH2 0x2B7D JUMPI PUSH2 0x2B7C PUSH2 0x2AD2 JUMP JUMPDEST JUMPDEST PUSH0 PUSH2 0x2B8A DUP6 DUP3 DUP7 ADD PUSH2 0x2B20 JUMP JUMPDEST SWAP3 POP POP PUSH1 0x20 PUSH2 0x2B9B DUP6 DUP3 DUP7 ADD PUSH2 0x2B53 JUMP JUMPDEST SWAP2 POP POP SWAP3 POP SWAP3 SWAP1 POP JUMP JUMPDEST PUSH2 0x2BAE DUP2 PUSH2 0x2B34 JUMP JUMPDEST DUP3 MSTORE POP POP JUMP JUMPDEST PUSH0 PUSH1 0x20 DUP3 ADD SWAP1 POP PUSH2 0x2BC7 PUSH0 DUP4 ADD DUP5 PUSH2 0x2BA5 JUMP JUMPDEST SWAP3 SWAP2 POP POP JUMP JUMPDEST PUSH0 PUSH32 0xFFFFFFFF00000000000000000000000000000000000000000000000000000000 DUP3 AND SWAP1 POP SWAP2 SWAP1 POP JUMP JUMPDEST PUSH2 0x2C01 DUP2 PUSH2 0x2BCD JUMP JUMPDEST DUP2 EQ PUSH2 0x2C0B JUMPI PUSH0 DUP1 REVERT JUMPDEST POP JUMP JUMPDEST PUSH0 DUP2 CALLDATALOAD SWAP1 POP PUSH2 0x2C1C DUP2 PUSH2 0x2BF8 JUMP JUMPDEST SWAP3 SWAP2 POP POP JUMP JUMPDEST PUSH0 PUSH1 0x20 DUP3 DUP5 SUB SLT ISZERO PUSH2 0x2C37 JUMPI PUSH2 0x2C36 PUSH2 0x2AD2 JUMP JUMPDEST JUMPDEST PUSH0 PUSH2 0x2C44 DUP5 DUP3 DUP6 ADD PUSH2 0x2C0E JUMP JUMPDEST SWAP2 POP POP SWAP3 SWAP2 POP POP JUMP JUMPDEST PUSH0 DUP2 ISZERO ISZERO SWAP1 POP SWAP2 SWAP1 POP JUMP JUMPDEST PUSH2 0x2C61 DUP2 PUSH2 0x2C4D JUMP JUMPDEST DUP3 MSTORE POP POP JUMP JUMPDEST PUSH0 PUSH1 0x20 DUP3 ADD SWAP1 POP PUSH2 0x2C7A PUSH0 DUP4 ADD DUP5 PUSH2 0x2C58 JUMP JUMPDEST SWAP3 SWAP2 POP POP JUMP JUMPDEST PUSH0 PUSH1 0x20 DUP3 DUP5 SUB SLT ISZERO PUSH2 0x2C95 JUMPI PUSH2 0x2C94 PUSH2 0x2AD2 JUMP JUMPDEST JUMPDEST PUSH0 PUSH2 0x2CA2 DUP5 DUP3 DUP6 ADD PUSH2 0x2B53 JUMP JUMPDEST SWAP2 POP POP SWAP3 SWAP2 POP POP JUMP JUMPDEST PUSH0 DUP2 MLOAD SWAP1 POP SWAP2 SWAP1 POP JUMP JUMPDEST PUSH0 DUP3 DUP3 MSTORE PUSH1 0x20 DUP3 ADD SWAP1 POP SWAP3 SWAP2 POP POP JUMP JUMPDEST DUP3 DUP2 DUP4 MCOPY PUSH0 DUP4 DUP4 ADD MSTORE POP POP POP JUMP JUMPDEST PUSH0 PUSH1 0x1F NOT PUSH1 0x1F DUP4 ADD AND SWAP1 POP SWAP2 SWAP1 POP JUMP JUMPDEST PUSH0 PUSH2 0x2CED DUP3 PUSH2 0x2CAB JUMP JUMPDEST PUSH2 0x2CF7 DUP2 DUP6 PUSH2 0x2CB5 JUMP JUMPDEST SWAP4 POP PUSH2 0x2D07 DUP2 DUP6 PUSH1 0x20 DUP7 ADD PUSH2 0x2CC5 JUMP JUMPDEST PUSH2 0x2D10 DUP2 PUSH2 0x2CD3 JUMP JUMPDEST DUP5 ADD SWAP2 POP POP SWAP3 SWAP2 POP POP JUMP JUMPDEST PUSH0 PUSH1 0x20 DUP3 ADD SWAP1 POP DUP2 DUP2 SUB PUSH0 DUP4 ADD MSTORE PUSH2 0x2D33 DUP2 DUP5 PUSH2 0x2CE3 JUMP JUMPDEST SWAP1 POP SWAP3 SWAP2 POP POP JUMP JUMPDEST PUSH0 DUP1 PUSH0 PUSH1 0x60 DUP5 DUP7 SUB SLT ISZERO PUSH2 0x2D52 JUMPI PUSH2 0x2D51 PUSH2 0x2AD2 JUMP JUMPDEST JUMPDEST PUSH0 PUSH2 0x2D5F DUP7 DUP3 DUP8 ADD PUSH2 0x2B20 JUMP JUMPDEST SWAP4 POP POP PUSH1 0x20 PUSH2 0x2D70 DUP7 DUP3 DUP8 ADD PUSH2 0x2B53 JUMP JUMPDEST SWAP3 POP POP PUSH1 0x40 PUSH2 0x2D81 DUP7 DUP3 DUP8 ADD PUSH2 0x2B53 JUMP JUMPDEST SWAP2 POP POP SWAP3 POP SWAP3 POP SWAP3 JUMP JUMPDEST PUSH0 DUP1 REVERT JUMPDEST PUSH32 0x4E487B7100000000000000000000000000000000000000000000000000000000 PUSH0 MSTORE PUSH1 0x41 PUSH1 0x4 MSTORE PUSH1 0x24 PUSH0 REVERT JUMPDEST PUSH2 0x2DC5 DUP3 PUSH2 0x2CD3 JUMP JUMPDEST DUP2 ADD DUP2 DUP2 LT PUSH8 0xFFFFFFFFFFFFFFFF DUP3 GT OR ISZERO PUSH2 0x2DE4 JUMPI PUSH2 0x2DE3 PUSH2 0x2D8F JUMP JUMPDEST JUMPDEST DUP1 PUSH1 0x40 MSTORE POP POP POP JUMP JUMPDEST PUSH0 PUSH2 0x2DF6 PUSH2 0x2AC9 JUMP JUMPDEST SWAP1 POP PUSH2 0x2E02 DUP3 DUP3 PUSH2 0x2DBC JUMP JUMPDEST SWAP2 SWAP1 POP JUMP JUMPDEST PUSH0 PUSH8 0xFFFFFFFFFFFFFFFF DUP3 GT ISZERO PUSH2 0x2E21 JUMPI PUSH2 0x2E20 PUSH2 0x2D8F JUMP JUMPDEST JUMPDEST PUSH1 0x20 DUP3 MUL SWAP1 POP PUSH1 0x20 DUP2 ADD SWAP1 POP SWAP2 SWAP1 POP JUMP JUMPDEST PUSH0 DUP1 REVERT JUMPDEST PUSH0 PUSH2 0x2E48 PUSH2 0x2E43 DUP5 PUSH2 0x2E07 JUMP JUMPDEST PUSH2 0x2DED JUMP JUMPDEST SWAP1 POP DUP1 DUP4 DUP3 MSTORE PUSH1 0x20 DUP3 ADD SWAP1 POP PUSH1 0x20 DUP5 MUL DUP4 ADD DUP6 DUP2 GT ISZERO PUSH2 0x2E6B JUMPI PUSH2 0x2E6A PUSH2 0x2E32 JUMP JUMPDEST JUMPDEST DUP4 JUMPDEST DUP2 DUP2 LT ISZERO PUSH2 0x2E94 JUMPI DUP1 PUSH2 0x2E80 DUP9 DUP3 PUSH2 0x2B53 JUMP JUMPDEST DUP5 MSTORE PUSH1 0x20 DUP5 ADD SWAP4 POP POP PUSH1 0x20 DUP2 ADD SWAP1 POP PUSH2 0x2E6D JUMP JUMPDEST POP POP POP SWAP4 SWAP3 POP POP POP JUMP JUMPDEST PUSH0 DUP3 PUSH1 0x1F DUP4 ADD SLT PUSH2 0x2EB2 JUMPI PUSH2 0x2EB1 PUSH2 0x2D8B JUMP JUMPDEST JUMPDEST DUP2 CALLDATALOAD PUSH2 0x2EC2 DUP5 DUP3 PUSH1 0x20 DUP7 ADD PUSH2 0x2E36 JUMP JUMPDEST SWAP2 POP POP SWAP3 SWAP2 POP POP JUMP JUMPDEST PUSH0 DUP1 REVERT JUMPDEST PUSH0 PUSH8 0xFFFFFFFFFFFFFFFF DUP3 GT ISZERO PUSH2 0x2EE9 JUMPI PUSH2 0x2EE8 PUSH2 0x2D8F JUMP JUMPDEST JUMPDEST PUSH2 0x2EF2 DUP3 PUSH2 0x2CD3 JUMP JUMPDEST SWAP1 POP PUSH1 0x20 DUP2 ADD SWAP1 POP SWAP2 SWAP1 POP JUMP JUMPDEST DUP3 DUP2 DUP4 CALLDATACOPY PUSH0 DUP4 DUP4 ADD MSTORE POP POP POP JUMP JUMPDEST PUSH0 PUSH2 0x2F1F PUSH2 0x2F1A DUP5 PUSH2 0x2ECF JUMP JUMPDEST PUSH2 0x2DED JUMP JUMPDEST SWAP1 POP DUP3 DUP2 MSTORE PUSH1 0x20 DUP2 ADD DUP5 DUP5 DUP5 ADD GT ISZERO PUSH2 0x2F3B JUMPI PUSH2 0x2F3A PUSH2 0x2ECB JUMP JUMPDEST JUMPDEST PUSH2 0x2F46 DUP5 DUP3 DUP6 PUSH2 0x2EFF JUMP JUMPDEST POP SWAP4 SWAP3 POP POP POP JUMP JUMPDEST PUSH0 DUP3 PUSH1 0x1F DUP4 ADD SLT PUSH2 0x2F62 JUMPI PUSH2 0x2F61 PUSH2 0x2D8B JUMP JUMPDEST JUMPDEST DUP2 CALLDATALOAD PUSH2 0x2F72 DUP5 DUP3 PUSH1 0x20 DUP7 ADD PUSH2 0x2F0D JUMP JUMPDEST SWAP2 POP POP SWAP3 SWAP2 POP POP JUMP JUMPDEST PUSH0 DUP1 PUSH0 DUP1 PUSH0 PUSH1 0xA0 DUP7 DUP9 SUB SLT ISZERO PUSH2 0x2F94 JUMPI PUSH2 0x2F93 PUSH2 0x2AD2 JUMP JUMPDEST JUMPDEST PUSH0 PUSH2 0x2FA1 DUP9 DUP3 DUP10 ADD PUSH2 0x2B20 JUMP JUMPDEST SWAP6 POP POP PUSH1 0x20 PUSH2 0x2FB2 DUP9 DUP3 DUP10 ADD PUSH2 0x2B20 JUMP JUMPDEST SWAP5 POP POP PUSH1 0x40 DUP7 ADD CALLDATALOAD PUSH8 0xFFFFFFFFFFFFFFFF DUP2 GT ISZERO PUSH2 0x2FD3 JUMPI PUSH2 0x2FD2 PUSH2 0x2AD6 JUMP JUMPDEST JUMPDEST PUSH2 0x2FDF DUP9 DUP3 DUP10 ADD PUSH2 0x2E9E JUMP JUMPDEST SWAP4 POP POP PUSH1 0x60 DUP7 ADD CALLDATALOAD PUSH8 0xFFFFFFFFFFFFFFFF DUP2 GT ISZERO PUSH2 0x3000 JUMPI PUSH2 0x2FFF PUSH2 0x2AD6 JUMP JUMPDEST JUMPDEST PUSH2 0x300C DUP9 DUP3 DUP10 ADD PUSH2 0x2E9E JUMP JUMPDEST SWAP3 POP POP PUSH1 0x80 DUP7 ADD CALLDATALOAD PUSH8 0xFFFFFFFFFFFFFFFF DUP2 GT ISZERO PUSH2 0x302D JUMPI PUSH2 0x302C PUSH2 0x2AD6 JUMP JUMPDEST JUMPDEST PUSH2 0x3039 DUP9 DUP3 DUP10 ADD PUSH2 0x2F4E JUMP JUMPDEST SWAP2 POP POP SWAP3 SWAP6 POP SWAP3 SWAP6 SWAP1 SWAP4 POP JUMP JUMPDEST PUSH0 PUSH8 0xFFFFFFFFFFFFFFFF DUP3 GT ISZERO PUSH2 0x3060 JUMPI PUSH2 0x305F PUSH2 0x2D8F JUMP JUMPDEST JUMPDEST PUSH1 0x20 DUP3 MUL SWAP1 POP PUSH1 0x20 DUP2 ADD SWAP1 POP SWAP2 SWAP1 POP JUMP JUMPDEST PUSH0 PUSH2 0x3083 PUSH2 0x307E DUP5 PUSH2 0x3046 JUMP JUMPDEST PUSH2 0x2DED JUMP JUMPDEST SWAP1 POP DUP1 DUP4 DUP3 MSTORE PUSH1 0x20 DUP3 ADD SWAP1 POP PUSH1 0x20 DUP5 MUL DUP4 ADD DUP6 DUP2 GT ISZERO PUSH2 0x30A6 JUMPI PUSH2 0x30A5 PUSH2 0x2E32 JUMP JUMPDEST JUMPDEST DUP4 JUMPDEST DUP2 DUP2 LT ISZERO PUSH2 0x30CF JUMPI DUP1 PUSH2 0x30BB DUP9 DUP3 PUSH2 0x2B20 JUMP JUMPDEST DUP5 MSTORE PUSH1 0x20 DUP5 ADD SWAP4 POP POP PUSH1 0x20 DUP2 ADD SWAP1 POP PUSH2 0x30A8 JUMP JUMPDEST POP POP POP SWAP4 SWAP3 POP POP POP JUMP JUMPDEST PUSH0 DUP3 PUSH1 0x1F DUP4 ADD SLT PUSH2 0x30ED JUMPI PUSH2 0x30EC PUSH2 0x2D8B JUMP JUMPDEST JUMPDEST DUP2 CALLDATALOAD PUSH2 0x30FD DUP5 DUP3 PUSH1 0x20 DUP7 ADD PUSH2 0x3071 JUMP JUMPDEST SWAP2 POP POP SWAP3 SWAP2 POP POP JUMP JUMPDEST PUSH0 DUP1 PUSH1 0x40 DUP4 DUP6 SUB SLT ISZERO PUSH2 0x311C JUMPI PUSH2 0x311B PUSH2 0x2AD2 JUMP JUMPDEST JUMPDEST PUSH0 DUP4 ADD CALLDATALOAD PUSH8 0xFFFFFFFFFFFFFFFF DUP2 GT ISZERO PUSH2 0x3139 JUMPI PUSH2 0x3138 PUSH2 0x2AD6 JUMP JUMPDEST JUMPDEST PUSH2 0x3145 DUP6 DUP3 DUP7 ADD PUSH2 0x30D9 JUMP JUMPDEST SWAP3 POP POP PUSH1 0x20 DUP4 ADD CALLDATALOAD PUSH8 0xFFFFFFFFFFFFFFFF DUP2 GT ISZERO PUSH2 0x3166 JUMPI PUSH2 0x3165 PUSH2 0x2AD6 JUMP JUMPDEST JUMPDEST PUSH2 0x3172 DUP6 DUP3 DUP7 ADD PUSH2 0x2E9E JUMP JUMPDEST SWAP2 POP POP SWAP3 POP SWAP3 SWAP1 POP JUMP JUMPDEST PUSH0 DUP2 MLOAD SWAP1 POP SWAP2 SWAP1 POP JUMP JUMPDEST PUSH0 DUP3 DUP3 MSTORE PUSH1 0x20 DUP3 ADD SWAP1 POP SWAP3 SWAP2 POP POP JUMP JUMPDEST PUSH0 DUP2 SWAP1 POP PUSH1 0x20 DUP3 ADD SWAP1 POP SWAP2 SWAP1 POP JUMP JUMPDEST PUSH2 0x31AE DUP2 PUSH2 0x2B34 JUMP JUMPDEST DUP3 MSTORE POP POP JUMP JUMPDEST PUSH0 PUSH2 0x31BF DUP4 DUP4 PUSH2 0x31A5 JUMP JUMPDEST PUSH1 0x20 DUP4 ADD SWAP1 POP SWAP3 SWAP2 POP POP JUMP JUMPDEST PUSH0 PUSH1 0x20 DUP3 ADD SWAP1 POP SWAP2 SWAP1 POP JUMP JUMPDEST PUSH0 PUSH2 0x31E1 DUP3 PUSH2 0x317C JUMP JUMPDEST PUSH2 0x31EB DUP2 DUP6 PUSH2 0x3186 JUMP JUMPDEST SWAP4 POP PUSH2 0x31F6 DUP4 PUSH2 0x3196 JUMP JUMPDEST DUP1 PUSH0 JUMPDEST DUP4 DUP2 LT ISZERO PUSH2 0x3226 JUMPI DUP2 MLOAD PUSH2 0x320D DUP9 DUP3 PUSH2 0x31B4 JUMP JUMPDEST SWAP8 POP PUSH2 0x3218 DUP4 PUSH2 0x31CB JUMP JUMPDEST SWAP3 POP POP PUSH1 0x1 DUP2 ADD SWAP1 POP PUSH2 0x31F9 JUMP JUMPDEST POP DUP6 SWAP4 POP POP POP POP SWAP3 SWAP2 POP POP JUMP JUMPDEST PUSH0 PUSH1 0x20 DUP3 ADD SWAP1 POP DUP2 DUP2 SUB PUSH0 DUP4 ADD MSTORE PUSH2 0x324B DUP2 DUP5 PUSH2 0x31D7 JUMP JUMPDEST SWAP1 POP SWAP3 SWAP2 POP POP JUMP JUMPDEST PUSH0 PUSH1 0x20 DUP3 DUP5 SUB SLT ISZERO PUSH2 0x3268 JUMPI PUSH2 0x3267 PUSH2 0x2AD2 JUMP JUMPDEST JUMPDEST PUSH0 PUSH2 0x3275 DUP5 DUP3 DUP6 ADD PUSH2 0x2B20 JUMP JUMPDEST SWAP2 POP POP SWAP3 SWAP2 POP POP JUMP JUMPDEST PUSH2 0x3287 DUP2 PUSH2 0x2AF9 JUMP JUMPDEST DUP3 MSTORE POP POP JUMP JUMPDEST PUSH0 PUSH1 0x20 DUP3 ADD SWAP1 POP PUSH2 0x32A0 PUSH0 DUP4 ADD DUP5 PUSH2 0x327E JUMP JUMPDEST SWAP3 SWAP2 POP POP JUMP JUMPDEST PUSH2 0x32AF DUP2 PUSH2 0x2C4D JUMP JUMPDEST DUP2 EQ PUSH2 0x32B9 JUMPI PUSH0 DUP1 REVERT JUMPDEST POP JUMP JUMPDEST PUSH0 DUP2 CALLDATALOAD SWAP1 POP PUSH2 0x32CA DUP2 PUSH2 0x32A6 JUMP JUMPDEST SWAP3 SWAP2 POP POP JUMP JUMPDEST PUSH0 DUP1 PUSH1 0x40 DUP4 DUP6 SUB SLT ISZERO PUSH2 0x32E6 JUMPI PUSH2 0x32E5 PUSH2 0x2AD2 JUMP JUMPDEST JUMPDEST PUSH0 PUSH2 0x32F3 DUP6 DUP3 DUP7 ADD PUSH2 0x2B20 JUMP JUMPDEST SWAP3 POP POP PUSH1 0x20 PUSH2 0x3304 DUP6 DUP3 DUP7 ADD PUSH2 0x32BC JUMP JUMPDEST SWAP2 POP POP SWAP3 POP SWAP3 SWAP1 POP JUMP JUMPDEST PUSH0 DUP1 PUSH1 0x40 DUP4 DUP6 SUB SLT ISZERO PUSH2 0x3324 JUMPI PUSH2 0x3323 PUSH2 0x2AD2 JUMP JUMPDEST JUMPDEST PUSH0 PUSH2 0x3331 DUP6 DUP3 DUP7 ADD PUSH2 0x2B20 JUMP JUMPDEST SWAP3 POP POP PUSH1 0x20 PUSH2 0x3342 DUP6 DUP3 DUP7 ADD PUSH2 0x2B20 JUMP JUMPDEST SWAP2 POP POP SWAP3 POP SWAP3 SWAP1 POP JUMP JUMPDEST PUSH0 DUP1 PUSH0 DUP1 PUSH0 PUSH1 0xA0 DUP7 DUP9 SUB SLT ISZERO PUSH2 0x3365 JUMPI PUSH2 0x3364 PUSH2 0x2AD2 JUMP JUMPDEST JUMPDEST PUSH0 PUSH2 0x3372 DUP9 DUP3 DUP10 ADD PUSH2 0x2B20 JUMP JUMPDEST SWAP6 POP POP PUSH1 0x20 PUSH2 0x3383 DUP9 DUP3 DUP10 ADD PUSH2 0x2B20 JUMP JUMPDEST SWAP5 POP POP PUSH1 0x40 PUSH2 0x3394 DUP9 DUP3 DUP10 ADD PUSH2 0x2B53 JUMP JUMPDEST SWAP4 POP POP PUSH1 0x60 PUSH2 0x33A5 DUP9 DUP3 DUP10 ADD PUSH2 0x2B53 JUMP JUMPDEST SWAP3 POP POP PUSH1 0x80 DUP7 ADD CALLDATALOAD PUSH8 0xFFFFFFFFFFFFFFFF DUP2 GT ISZERO PUSH2 0x33C6 JUMPI PUSH2 0x33C5 PUSH2 0x2AD6 JUMP JUMPDEST JUMPDEST PUSH2 0x33D2 DUP9 DUP3 DUP10 ADD PUSH2 0x2F4E JUMP JUMPDEST SWAP2 POP POP SWAP3 SWAP6 POP SWAP3 SWAP6 SWAP1 SWAP4 POP JUMP JUMPDEST PUSH0 DUP2 SWAP1 POP SWAP3 SWAP2 POP POP JUMP JUMPDEST PUSH32 0x697066733A2F2F00000000000000000000000000000000000000000000000000 PUSH0 DUP3 ADD MSTORE POP JUMP JUMPDEST PUSH0 PUSH2 0x341D PUSH1 0x7 DUP4 PUSH2 0x33DF JUMP JUMPDEST SWAP2 POP PUSH2 0x3428 DUP3 PUSH2 0x33E9 JUMP JUMPDEST PUSH1 0x7 DUP3 ADD SWAP1 POP SWAP2 SWAP1 POP JUMP JUMPDEST PUSH0 PUSH2 0x343D DUP3 PUSH2 0x2CAB JUMP JUMPDEST PUSH2 0x3447 DUP2 DUP6 PUSH2 0x33DF JUMP JUMPDEST SWAP4 POP PUSH2 0x3457 DUP2 DUP6 PUSH1 0x20 DUP7 ADD PUSH2 0x2CC5 JUMP JUMPDEST DUP1 DUP5 ADD SWAP2 POP POP SWAP3 SWAP2 POP POP JUMP JUMPDEST PUSH0 PUSH2 0x346D DUP3 PUSH2 0x3411 JUMP JUMPDEST SWAP2 POP PUSH2 0x3479 DUP3 DUP5 PUSH2 0x3433 JUMP JUMPDEST SWAP2 POP DUP2 SWAP1 POP SWAP3 SWAP2 POP POP JUMP JUMPDEST PUSH32 0x554E415554484F52495A45440000000000000000000000000000000000000000 PUSH0 DUP3 ADD MSTORE POP JUMP JUMPDEST PUSH0 PUSH2 0x34B8 PUSH1 0xC DUP4 PUSH2 0x2CB5 JUMP JUMPDEST SWAP2 POP PUSH2 0x34C3 DUP3 PUSH2 0x3484 JUMP JUMPDEST PUSH1 0x20 DUP3 ADD SWAP1 POP SWAP2 SWAP1 POP JUMP JUMPDEST PUSH0 PUSH1 0x20 DUP3 ADD SWAP1 POP DUP2 DUP2 SUB PUSH0 DUP4 ADD MSTORE PUSH2 0x34E5 DUP2 PUSH2 0x34AC JUMP JUMPDEST SWAP1 POP SWAP2 SWAP1 POP JUMP JUMPDEST PUSH32 0x496E76616C696420746F6B656E20494400000000000000000000000000000000 PUSH0 DUP3 ADD MSTORE POP JUMP JUMPDEST PUSH0 PUSH2 0x3520 PUSH1 0x10 DUP4 PUSH2 0x2CB5 JUMP JUMPDEST SWAP2 POP PUSH2 0x352B DUP3 PUSH2 0x34EC JUMP JUMPDEST PUSH1 0x20 DUP3 ADD SWAP1 POP SWAP2 SWAP1 POP JUMP JUMPDEST PUSH0 PUSH1 0x20 DUP3 ADD SWAP1 POP DUP2 DUP2 SUB PUSH0 DUP4 ADD MSTORE PUSH2 0x354D DUP2 PUSH2 0x3514 JUMP JUMPDEST SWAP1 POP SWAP2 SWAP1 POP JUMP JUMPDEST PUSH32 0x4D617820686F6C64657273207265616368656400000000000000000000000000 PUSH0 DUP3 ADD MSTORE POP JUMP JUMPDEST PUSH0 PUSH2 0x3588 PUSH1 0x13 DUP4 PUSH2 0x2CB5 JUMP JUMPDEST SWAP2 POP PUSH2 0x3593 DUP3 PUSH2 0x3554 JUMP JUMPDEST PUSH1 0x20 DUP3 ADD SWAP1 POP SWAP2 SWAP1 POP JUMP JUMPDEST PUSH0 PUSH1 0x20 DUP3 ADD SWAP1 POP DUP2 DUP2 SUB PUSH0 DUP4 ADD MSTORE PUSH2 0x35B5 DUP2 PUSH2 0x357C JUMP JUMPDEST SWAP1 POP SWAP2 SWAP1 POP JUMP JUMPDEST PUSH0 PUSH1 0x40 DUP3 ADD SWAP1 POP PUSH2 0x35CF PUSH0 DUP4 ADD DUP6 PUSH2 0x327E JUMP JUMPDEST PUSH2 0x35DC PUSH1 0x20 DUP4 ADD DUP5 PUSH2 0x327E JUMP JUMPDEST SWAP4 SWAP3 POP POP POP JUMP JUMPDEST PUSH0 DUP2 MLOAD SWAP1 POP PUSH2 0x35F1 DUP2 PUSH2 0x2B3D JUMP JUMPDEST SWAP3 SWAP2 POP POP JUMP JUMPDEST PUSH0 PUSH1 0x20 DUP3 DUP5 SUB SLT ISZERO PUSH2 0x360C JUMPI PUSH2 0x360B PUSH2 0x2AD2 JUMP JUMPDEST JUMPDEST PUSH0 PUSH2 0x3619 DUP5 DUP3 DUP6 ADD PUSH2 0x35E3 JUMP JUMPDEST SWAP2 POP POP SWAP3 SWAP2 POP POP JUMP JUMPDEST PUSH0 PUSH1 0x40 DUP3 ADD SWAP1 POP PUSH2 0x3635 PUSH0 DUP4 ADD DUP6 PUSH2 0x2BA5 JUMP JUMPDEST PUSH2 0x3642 PUSH1 0x20 DUP4 ADD DUP5 PUSH2 0x2BA5 JUMP JUMPDEST SWAP4 SWAP3 POP POP POP JUMP JUMPDEST PUSH32 0x4E487B7100000000000000000000000000000000000000000000000000000000 PUSH0 MSTORE PUSH1 0x32 PUSH1 0x4 MSTORE PUSH1 0x24 PUSH0 REVERT JUMPDEST PUSH32 0x496E76616C696420746F6B656E20616464726573730000000000000000000000 PUSH0 DUP3 ADD MSTORE POP JUMP JUMPDEST PUSH0 PUSH2 0x36AA PUSH1 0x15 DUP4 PUSH2 0x2CB5 JUMP JUMPDEST SWAP2 POP PUSH2 0x36B5 DUP3 PUSH2 0x3676 JUMP JUMPDEST PUSH1 0x20 DUP3 ADD SWAP1 POP SWAP2 SWAP1 POP JUMP JUMPDEST PUSH0 PUSH1 0x20 DUP3 ADD SWAP1 POP DUP2 DUP2 SUB PUSH0 DUP4 ADD MSTORE PUSH2 0x36D7 DUP2 PUSH2 0x369E JUMP JUMPDEST SWAP1 POP SWAP2 SWAP1 POP JUMP JUMPDEST PUSH32 0x4E6F20746F6B656E7320617661696C61626C6520666F72206469737472696275 PUSH0 DUP3 ADD MSTORE PUSH32 0x74696F6E00000000000000000000000000000000000000000000000000000000 PUSH1 0x20 DUP3 ADD MSTORE POP JUMP JUMPDEST PUSH0 PUSH2 0x3738 PUSH1 0x24 DUP4 PUSH2 0x2CB5 JUMP JUMPDEST SWAP2 POP PUSH2 0x3743 DUP3 PUSH2 0x36DE JUMP JUMPDEST PUSH1 0x40 DUP3 ADD SWAP1 POP SWAP2 SWAP1 POP JUMP JUMPDEST PUSH0 PUSH1 0x20 DUP3 ADD SWAP1 POP DUP2 DUP2 SUB PUSH0 DUP4 ADD MSTORE PUSH2 0x3765 DUP2 PUSH2 0x372C JUMP JUMPDEST SWAP1 POP SWAP2 SWAP1 POP JUMP JUMPDEST PUSH32 0x4E487B7100000000000000000000000000000000000000000000000000000000 PUSH0 MSTORE PUSH1 0x11 PUSH1 0x4 MSTORE PUSH1 0x24 PUSH0 REVERT JUMPDEST PUSH0 PUSH2 0x37A3 DUP3 PUSH2 0x2B34 JUMP JUMPDEST SWAP2 POP PUSH2 0x37AE DUP4 PUSH2 0x2B34 JUMP JUMPDEST SWAP3 POP DUP3 DUP3 MUL PUSH2 0x37BC DUP2 PUSH2 0x2B34 JUMP JUMPDEST SWAP2 POP DUP3 DUP3 DIV DUP5 EQ DUP4 ISZERO OR PUSH2 0x37D3 JUMPI PUSH2 0x37D2 PUSH2 0x376C JUMP JUMPDEST JUMPDEST POP SWAP3 SWAP2 POP POP JUMP JUMPDEST PUSH0 PUSH2 0x37E4 DUP3 PUSH2 0x2B34 JUMP JUMPDEST SWAP2 POP PUSH2 0x37EF DUP4 PUSH2 0x2B34 JUMP JUMPDEST SWAP3 POP DUP3 DUP3 ADD SWAP1 POP DUP1 DUP3 GT ISZERO PUSH2 0x3807 JUMPI PUSH2 0x3806 PUSH2 0x376C JUMP JUMPDEST JUMPDEST SWAP3 SWAP2 POP POP JUMP JUMPDEST PUSH0 PUSH2 0x3817 DUP3 PUSH2 0x2B34 JUMP JUMPDEST SWAP2 POP PUSH32 0xFFFFFFFFFFFFFFFFFFFFFFFFFFFFFFFFFFFFFFFFFFFFFFFFFFFFFFFFFFFFFFFF DUP3 SUB PUSH2 0x3849 JUMPI PUSH2 0x3848 PUSH2 0x376C JUMP JUMPDEST JUMPDEST PUSH1 0x1 DUP3 ADD SWAP1 POP SWAP2 SWAP1 POP JUMP JUMPDEST PUSH32 0x4E6F20656C696769626C6520726563697069656E747300000000000000000000 PUSH0 DUP3 ADD MSTORE POP JUMP JUMPDEST PUSH0 PUSH2 0x3888 PUSH1 0x16 DUP4 PUSH2 0x2CB5 JUMP JUMPDEST SWAP2 POP PUSH2 0x3893 DUP3 PUSH2 0x3854 JUMP JUMPDEST PUSH1 0x20 DUP3 ADD SWAP1 POP SWAP2 SWAP1 POP JUMP JUMPDEST PUSH0 PUSH1 0x20 DUP3 ADD SWAP1 POP DUP2 DUP2 SUB PUSH0 DUP4 ADD MSTORE PUSH2 0x38B5 DUP2 PUSH2 0x387C JUMP JUMPDEST SWAP1 POP SWAP2 SWAP1 POP JUMP JUMPDEST PUSH32 0x496E73756666696369656E742066756E64730000000000000000000000000000 PUSH0 DUP3 ADD MSTORE POP JUMP JUMPDEST PUSH0 PUSH2 0x38F0 PUSH1 0x12 DUP4 PUSH2 0x2CB5 JUMP JUMPDEST SWAP2 POP PUSH2 0x38FB DUP3 PUSH2 0x38BC JUMP JUMPDEST PUSH1 0x20 DUP3 ADD SWAP1 POP SWAP2 SWAP1 POP JUMP JUMPDEST PUSH0 PUSH1 0x20 DUP3 ADD SWAP1 POP DUP2 DUP2 SUB PUSH0 DUP4 ADD MSTORE PUSH2 0x391D DUP2 PUSH2 0x38E4 JUMP JUMPDEST SWAP1 POP SWAP2 SWAP1 POP JUMP JUMPDEST PUSH32 0x4E487B7100000000000000000000000000000000000000000000000000000000 PUSH0 MSTORE PUSH1 0x12 PUSH1 0x4 MSTORE PUSH1 0x24 PUSH0 REVERT JUMPDEST PUSH0 PUSH1 0x40 DUP3 ADD SWAP1 POP PUSH2 0x3964 PUSH0 DUP4 ADD DUP6 PUSH2 0x327E JUMP JUMPDEST PUSH2 0x3971 PUSH1 0x20 DUP4 ADD DUP5 PUSH2 0x2BA5 JUMP JUMPDEST SWAP4 SWAP3 POP POP POP JUMP JUMPDEST PUSH0 DUP2 MLOAD SWAP1 POP SWAP2 SWAP1 POP JUMP JUMPDEST PUSH0 DUP3 DUP3 MSTORE PUSH1 0x20 DUP3 ADD SWAP1 POP SWAP3 SWAP2 POP POP JUMP JUMPDEST PUSH0 PUSH2 0x399C DUP3 PUSH2 0x3978 JUMP JUMPDEST PUSH2 0x39A6 DUP2 DUP6 PUSH2 0x3982 JUMP JUMPDEST SWAP4 POP PUSH2 0x39B6 DUP2 DUP6 PUSH1 0x20 DUP7 ADD PUSH2 0x2CC5 JUMP JUMPDEST PUSH2 0x39BF DUP2 PUSH2 0x2CD3 JUMP JUMPDEST DUP5 ADD SWAP2 POP POP SWAP3 SWAP2 POP POP JUMP JUMPDEST PUSH0 PUSH1 0xA0 DUP3 ADD SWAP1 POP PUSH2 0x39DD PUSH0 DUP4 ADD DUP9 PUSH2 0x327E JUMP JUMPDEST PUSH2 0x39EA PUSH1 0x20 DUP4 ADD DUP8 PUSH2 0x327E JUMP JUMPDEST PUSH2 0x39F7 PUSH1 0x40 DUP4 ADD DUP7 PUSH2 0x2BA5 JUMP JUMPDEST PUSH2 0x3A04 PUSH1 0x60 DUP4 ADD DUP6 PUSH2 0x2BA5 JUMP JUMPDEST DUP2 DUP2 SUB PUSH1 0x80 DUP4 ADD MSTORE PUSH2 0x3A16 DUP2 DUP5 PUSH2 0x3992 JUMP JUMPDEST SWAP1 POP SWAP7 SWAP6 POP POP POP POP POP POP JUMP JUMPDEST PUSH0 DUP2 MLOAD SWAP1 POP PUSH2 0x3A30 DUP2 PUSH2 0x2BF8 JUMP JUMPDEST SWAP3 SWAP2 POP POP JUMP JUMPDEST PUSH0 PUSH1 0x20 DUP3 DUP5 SUB SLT ISZERO PUSH2 0x3A4B JUMPI PUSH2 0x3A4A PUSH2 0x2AD2 JUMP JUMPDEST JUMPDEST PUSH0 PUSH2 0x3A58 DUP5 DUP3 DUP6 ADD PUSH2 0x3A22 JUMP JUMPDEST SWAP2 POP POP SWAP3 SWAP2 POP POP JUMP JUMPDEST PUSH0 PUSH1 0xA0 DUP3 ADD SWAP1 POP PUSH2 0x3A74 PUSH0 DUP4 ADD DUP9 PUSH2 0x327E JUMP JUMPDEST PUSH2 0x3A81 PUSH1 0x20 DUP4 ADD DUP8 PUSH2 0x327E JUMP JUMPDEST DUP2 DUP2 SUB PUSH1 0x40 DUP4 ADD MSTORE PUSH2 0x3A93 DUP2 DUP7 PUSH2 0x31D7 JUMP JUMPDEST SWAP1 POP DUP2 DUP2 SUB PUSH1 0x60 DUP4 ADD MSTORE PUSH2 0x3AA7 DUP2 DUP6 PUSH2 0x31D7 JUMP JUMPDEST SWAP1 POP DUP2 DUP2 SUB PUSH1 0x80 DUP4 ADD MSTORE PUSH2 0x3ABB DUP2 DUP5 PUSH2 0x3992 JUMP JUMPDEST SWAP1 POP SWAP7 SWAP6 POP POP POP POP POP POP JUMP JUMPDEST PUSH0 PUSH1 0x80 DUP3 ADD SWAP1 POP PUSH2 0x3ADA PUSH0 DUP4 ADD DUP8 PUSH2 0x327E JUMP JUMPDEST PUSH2 0x3AE7 PUSH1 0x20 DUP4 ADD DUP7 PUSH2 0x2BA5 JUMP JUMPDEST PUSH2 0x3AF4 PUSH1 0x40 DUP4 ADD DUP6 PUSH2 0x2BA5 JUMP JUMPDEST PUSH2 0x3B01 PUSH1 0x60 DUP4 ADD DUP5 PUSH2 0x2BA5 JUMP JUMPDEST SWAP6 SWAP5 POP POP POP POP POP JUMP JUMPDEST PUSH0 PUSH1 0x40 DUP3 ADD SWAP1 POP DUP2 DUP2 SUB PUSH0 DUP4 ADD MSTORE PUSH2 0x3B22 DUP2 DUP6 PUSH2 0x31D7 JUMP JUMPDEST SWAP1 POP DUP2 DUP2 SUB PUSH1 0x20 DUP4 ADD MSTORE PUSH2 0x3B36 DUP2 DUP5 PUSH2 0x31D7 JUMP JUMPDEST SWAP1 POP SWAP4 SWAP3 POP POP POP JUMP JUMPDEST PUSH0 PUSH2 0x3B49 DUP3 PUSH2 0x2B34 JUMP JUMPDEST SWAP2 POP PUSH2 0x3B54 DUP4 PUSH2 0x2B34 JUMP JUMPDEST SWAP3 POP DUP3 DUP3 SUB SWAP1 POP DUP2 DUP2 GT ISZERO PUSH2 0x3B6C JUMPI PUSH2 0x3B6B PUSH2 0x376C JUMP JUMPDEST JUMPDEST SWAP3 SWAP2 POP POP JUMP JUMPDEST PUSH32 0x4E487B7100000000000000000000000000000000000000000000000000000000 PUSH0 MSTORE PUSH1 0x31 PUSH1 0x4 MSTORE PUSH1 0x24 PUSH0 REVERT INVALID LOG2 PUSH5 0x6970667358 0x22 SLT KECCAK256 0xDE PUSH2 0x9FB6 0xA8 0x4D CALLDATACOPY BLOCKHASH DUP5 KECCAK256 0x28 0xFB 0x2A 0xE0 MLOAD 0x23 RETURN 0x1F DUP2 CODECOPY 0x25 0xAB SHL JUMPI PUSH13 0xCC27DBA44084EB64736F6C6343 STOP ADDMOD BYTE STOP CALLER "
		},
		"gasEstimates": {
			"creation": {
				"codeDepositCost": "3063400",
				"executionCost": "infinite",
				"totalCost": "infinite"
			},
			"external": {
				"MAX_HOLDERS()": "437",
				"PROOF_OF_ATTENDANCE()": "347",
				"PROOF_OF_ENGAGEMENT()": "436",
				"balanceOf(address,uint256)": "infinite",
				"balanceOfBatch(address[],uint256[])": "infinite",
				"baseFee()": "2558",
				"burn(address,uint256,uint256)": "infinite",
				"distributeTokens()": "infinite",
				"getHolderCount()": "2463",
				"isApprovedForAll(address,address)": "infinite",
				"mint(address,uint256,uint256)": "infinite",
				"owner()": "2575",
				"rewardToken()": "2640",
				"safeBatchTransferFrom(address,address,uint256[],uint256[],bytes)": "infinite",
				"safeTransferFrom(address,address,uint256,uint256,bytes)": "infinite",
				"setApprovalForAll(address,bool)": "infinite",
				"setBaseFee(uint256)": "infinite",
				"setRewardToken(address)": "28124",
				"supportsInterface(bytes4)": "809",
				"transferOwnership(address)": "28516",
				"uri(uint256)": "infinite",
				"withdrawRewardTokens()": "infinite"
			},
			"internal": {
				"_removeHolder(address)": "infinite",
				"_update(address,address,uint256[] memory,uint256[] memory)": "infinite",
				"_updateHolder(address,address,uint256)": "infinite"
			}
		},
		"methodIdentifiers": {
			"MAX_HOLDERS()": "22e12720",
			"PROOF_OF_ATTENDANCE()": "af82b107",
			"PROOF_OF_ENGAGEMENT()": "4ffd4eed",
			"balanceOf(address,uint256)": "00fdd58e",
			"balanceOfBatch(address[],uint256[])": "4e1273f4",
			"baseFee()": "6ef25c3a",
			"burn(address,uint256,uint256)": "f5298aca",
			"distributeTokens()": "9ab1b484",
			"getHolderCount()": "7136982b",
			"isApprovedForAll(address,address)": "e985e9c5",
			"mint(address,uint256,uint256)": "156e29f6",
			"owner()": "8da5cb5b",
			"rewardToken()": "f7c618c1",
			"safeBatchTransferFrom(address,address,uint256[],uint256[],bytes)": "2eb2c2d6",
			"safeTransferFrom(address,address,uint256,uint256,bytes)": "f242432a",
			"setApprovalForAll(address,bool)": "a22cb465",
			"setBaseFee(uint256)": "46860698",
			"setRewardToken(address)": "8aee8127",
			"supportsInterface(bytes4)": "01ffc9a7",
			"transferOwnership(address)": "f2fde38b",
			"uri(uint256)": "0e89341c",
			"withdrawRewardTokens()": "370243dc"
		}
	},
	"abi": [
		{
			"inputs": [
				{
					"internalType": "string",
					"name": "uri",
					"type": "string"
				},
				{
					"internalType": "address",
					"name": "owner",
					"type": "address"
				},
				{
					"internalType": "address",
					"name": "_rewardToken",
					"type": "address"
				},
				{
					"internalType": "uint256",
					"name": "_baseFee",
					"type": "uint256"
				}
			],
			"stateMutability": "nonpayable",
			"type": "constructor"
		},
		{
			"inputs": [
				{
					"internalType": "address",
					"name": "sender",
					"type": "address"
				},
				{
					"internalType": "uint256",
					"name": "balance",
					"type": "uint256"
				},
				{
					"internalType": "uint256",
					"name": "needed",
					"type": "uint256"
				},
				{
					"internalType": "uint256",
					"name": "tokenId",
					"type": "uint256"
				}
			],
			"name": "ERC1155InsufficientBalance",
			"type": "error"
		},
		{
			"inputs": [
				{
					"internalType": "address",
					"name": "approver",
					"type": "address"
				}
			],
			"name": "ERC1155InvalidApprover",
			"type": "error"
		},
		{
			"inputs": [
				{
					"internalType": "uint256",
					"name": "idsLength",
					"type": "uint256"
				},
				{
					"internalType": "uint256",
					"name": "valuesLength",
					"type": "uint256"
				}
			],
			"name": "ERC1155InvalidArrayLength",
			"type": "error"
		},
		{
			"inputs": [
				{
					"internalType": "address",
					"name": "operator",
					"type": "address"
				}
			],
			"name": "ERC1155InvalidOperator",
			"type": "error"
		},
		{
			"inputs": [
				{
					"internalType": "address",
					"name": "receiver",
					"type": "address"
				}
			],
			"name": "ERC1155InvalidReceiver",
			"type": "error"
		},
		{
			"inputs": [
				{
					"internalType": "address",
					"name": "sender",
					"type": "address"
				}
			],
			"name": "ERC1155InvalidSender",
			"type": "error"
		},
		{
			"inputs": [
				{
					"internalType": "address",
					"name": "operator",
					"type": "address"
				},
				{
					"internalType": "address",
					"name": "owner",
					"type": "address"
				}
			],
			"name": "ERC1155MissingApprovalForAll",
			"type": "error"
		},
		{
			"inputs": [
				{
					"internalType": "address",
					"name": "token",
					"type": "address"
				}
			],
			"name": "SafeERC20FailedOperation",
			"type": "error"
		},
		{
			"anonymous": false,
			"inputs": [
				{
					"indexed": true,
					"internalType": "address",
					"name": "account",
					"type": "address"
				},
				{
					"indexed": true,
					"internalType": "address",
					"name": "operator",
					"type": "address"
				},
				{
					"indexed": false,
					"internalType": "bool",
					"name": "approved",
					"type": "bool"
				}
			],
			"name": "ApprovalForAll",
			"type": "event"
		},
		{
			"anonymous": false,
			"inputs": [
				{
					"indexed": false,
					"internalType": "uint256",
					"name": "newBaseFee",
					"type": "uint256"
				}
			],
			"name": "BaseFeeUpdated",
			"type": "event"
		},
		{
			"anonymous": false,
			"inputs": [
				{
					"indexed": true,
					"internalType": "address",
					"name": "holder",
					"type": "address"
				}
			],
			"name": "HolderAdded",
			"type": "event"
		},
		{
			"anonymous": false,
			"inputs": [
				{
					"indexed": true,
					"internalType": "address",
					"name": "holder",
					"type": "address"
				}
			],
			"name": "HolderRemoved",
			"type": "event"
		},
		{
			"anonymous": false,
			"inputs": [
				{
					"indexed": true,
					"internalType": "address",
					"name": "attemptedHolder",
					"type": "address"
				}
			],
			"name": "MaxHoldersReached",
			"type": "event"
		},
		{
			"anonymous": false,
			"inputs": [
				{
					"indexed": true,
					"internalType": "address",
					"name": "user",
					"type": "address"
				},
				{
					"indexed": true,
					"internalType": "address",
					"name": "newOwner",
					"type": "address"
				}
			],
			"name": "OwnershipTransferred",
			"type": "event"
		},
		{
			"anonymous": false,
			"inputs": [
				{
					"indexed": true,
					"internalType": "address",
					"name": "newToken",
					"type": "address"
				}
			],
			"name": "RewardTokenChanged",
			"type": "event"
		},
		{
			"anonymous": false,
			"inputs": [
				{
					"indexed": true,
					"internalType": "address",
					"name": "recipient",
					"type": "address"
				},
				{
					"indexed": false,
					"internalType": "uint256",
					"name": "amount",
					"type": "uint256"
				}
			],
			"name": "TokensDistributed",
			"type": "event"
		},
		{
			"anonymous": false,
			"inputs": [
				{
					"indexed": true,
					"internalType": "address",
					"name": "operator",
					"type": "address"
				},
				{
					"indexed": true,
					"internalType": "address",
					"name": "from",
					"type": "address"
				},
				{
					"indexed": true,
					"internalType": "address",
					"name": "to",
					"type": "address"
				},
				{
					"indexed": false,
					"internalType": "uint256[]",
					"name": "ids",
					"type": "uint256[]"
				},
				{
					"indexed": false,
					"internalType": "uint256[]",
					"name": "values",
					"type": "uint256[]"
				}
			],
			"name": "TransferBatch",
			"type": "event"
		},
		{
			"anonymous": false,
			"inputs": [
				{
					"indexed": true,
					"internalType": "address",
					"name": "operator",
					"type": "address"
				},
				{
					"indexed": true,
					"internalType": "address",
					"name": "from",
					"type": "address"
				},
				{
					"indexed": true,
					"internalType": "address",
					"name": "to",
					"type": "address"
				},
				{
					"indexed": false,
					"internalType": "uint256",
					"name": "id",
					"type": "uint256"
				},
				{
					"indexed": false,
					"internalType": "uint256",
					"name": "value",
					"type": "uint256"
				}
			],
			"name": "TransferSingle",
			"type": "event"
		},
		{
			"anonymous": false,
			"inputs": [
				{
					"indexed": false,
					"internalType": "string",
					"name": "value",
					"type": "string"
				},
				{
					"indexed": true,
					"internalType": "uint256",
					"name": "id",
					"type": "uint256"
				}
			],
			"name": "URI",
			"type": "event"
		},
		{
			"inputs": [],
			"name": "MAX_HOLDERS",
			"outputs": [
				{
					"internalType": "uint256",
					"name": "",
					"type": "uint256"
				}
			],
			"stateMutability": "view",
			"type": "function"
		},
		{
			"inputs": [],
			"name": "PROOF_OF_ATTENDANCE",
			"outputs": [
				{
					"internalType": "uint256",
					"name": "",
					"type": "uint256"
				}
			],
			"stateMutability": "view",
			"type": "function"
		},
		{
			"inputs": [],
			"name": "PROOF_OF_ENGAGEMENT",
			"outputs": [
				{
					"internalType": "uint256",
					"name": "",
					"type": "uint256"
				}
			],
			"stateMutability": "view",
			"type": "function"
		},
		{
			"inputs": [
				{
					"internalType": "address",
					"name": "account",
					"type": "address"
				},
				{
					"internalType": "uint256",
					"name": "id",
					"type": "uint256"
				}
			],
			"name": "balanceOf",
			"outputs": [
				{
					"internalType": "uint256",
					"name": "",
					"type": "uint256"
				}
			],
			"stateMutability": "view",
			"type": "function"
		},
		{
			"inputs": [
				{
					"internalType": "address[]",
					"name": "accounts",
					"type": "address[]"
				},
				{
					"internalType": "uint256[]",
					"name": "ids",
					"type": "uint256[]"
				}
			],
			"name": "balanceOfBatch",
			"outputs": [
				{
					"internalType": "uint256[]",
					"name": "",
					"type": "uint256[]"
				}
			],
			"stateMutability": "view",
			"type": "function"
		},
		{
			"inputs": [],
			"name": "baseFee",
			"outputs": [
				{
					"internalType": "uint256",
					"name": "",
					"type": "uint256"
				}
			],
			"stateMutability": "view",
			"type": "function"
		},
		{
			"inputs": [
				{
					"internalType": "address",
					"name": "from",
					"type": "address"
				},
				{
					"internalType": "uint256",
					"name": "tokenId",
					"type": "uint256"
				},
				{
					"internalType": "uint256",
					"name": "amount",
					"type": "uint256"
				}
			],
			"name": "burn",
			"outputs": [],
			"stateMutability": "nonpayable",
			"type": "function"
		},
		{
			"inputs": [],
			"name": "distributeTokens",
			"outputs": [],
			"stateMutability": "nonpayable",
			"type": "function"
		},
		{
			"inputs": [],
			"name": "getHolderCount",
			"outputs": [
				{
					"internalType": "uint256",
					"name": "",
					"type": "uint256"
				}
			],
			"stateMutability": "view",
			"type": "function"
		},
		{
			"inputs": [
				{
					"internalType": "address",
					"name": "account",
					"type": "address"
				},
				{
					"internalType": "address",
					"name": "operator",
					"type": "address"
				}
			],
			"name": "isApprovedForAll",
			"outputs": [
				{
					"internalType": "bool",
					"name": "",
					"type": "bool"
				}
			],
			"stateMutability": "view",
			"type": "function"
		},
		{
			"inputs": [
				{
					"internalType": "address",
					"name": "to",
					"type": "address"
				},
				{
					"internalType": "uint256",
					"name": "tokenId",
					"type": "uint256"
				},
				{
					"internalType": "uint256",
					"name": "amount",
					"type": "uint256"
				}
			],
			"name": "mint",
			"outputs": [],
			"stateMutability": "nonpayable",
			"type": "function"
		},
		{
			"inputs": [],
			"name": "owner",
			"outputs": [
				{
					"internalType": "address",
					"name": "",
					"type": "address"
				}
			],
			"stateMutability": "view",
			"type": "function"
		},
		{
			"inputs": [],
			"name": "rewardToken",
			"outputs": [
				{
					"internalType": "address",
					"name": "",
					"type": "address"
				}
			],
			"stateMutability": "view",
			"type": "function"
		},
		{
			"inputs": [
				{
					"internalType": "address",
					"name": "from",
					"type": "address"
				},
				{
					"internalType": "address",
					"name": "to",
					"type": "address"
				},
				{
					"internalType": "uint256[]",
					"name": "ids",
					"type": "uint256[]"
				},
				{
					"internalType": "uint256[]",
					"name": "values",
					"type": "uint256[]"
				},
				{
					"internalType": "bytes",
					"name": "data",
					"type": "bytes"
				}
			],
			"name": "safeBatchTransferFrom",
			"outputs": [],
			"stateMutability": "nonpayable",
			"type": "function"
		},
		{
			"inputs": [
				{
					"internalType": "address",
					"name": "from",
					"type": "address"
				},
				{
					"internalType": "address",
					"name": "to",
					"type": "address"
				},
				{
					"internalType": "uint256",
					"name": "id",
					"type": "uint256"
				},
				{
					"internalType": "uint256",
					"name": "value",
					"type": "uint256"
				},
				{
					"internalType": "bytes",
					"name": "data",
					"type": "bytes"
				}
			],
			"name": "safeTransferFrom",
			"outputs": [],
			"stateMutability": "nonpayable",
			"type": "function"
		},
		{
			"inputs": [
				{
					"internalType": "address",
					"name": "operator",
					"type": "address"
				},
				{
					"internalType": "bool",
					"name": "approved",
					"type": "bool"
				}
			],
			"name": "setApprovalForAll",
			"outputs": [],
			"stateMutability": "nonpayable",
			"type": "function"
		},
		{
			"inputs": [
				{
					"internalType": "uint256",
					"name": "newBaseFee",
					"type": "uint256"
				}
			],
			"name": "setBaseFee",
			"outputs": [],
			"stateMutability": "nonpayable",
			"type": "function"
		},
		{
			"inputs": [
				{
					"internalType": "address",
					"name": "newToken",
					"type": "address"
				}
			],
			"name": "setRewardToken",
			"outputs": [],
			"stateMutability": "nonpayable",
			"type": "function"
		},
		{
			"inputs": [
				{
					"internalType": "bytes4",
					"name": "interfaceId",
					"type": "bytes4"
				}
			],
			"name": "supportsInterface",
			"outputs": [
				{
					"internalType": "bool",
					"name": "",
					"type": "bool"
				}
			],
			"stateMutability": "view",
			"type": "function"
		},
		{
			"inputs": [
				{
					"internalType": "address",
					"name": "newOwner",
					"type": "address"
				}
			],
			"name": "transferOwnership",
			"outputs": [],
			"stateMutability": "nonpayable",
			"type": "function"
		},
		{
			"inputs": [
				{
					"internalType": "uint256",
					"name": "id",
					"type": "uint256"
				}
			],
			"name": "uri",
			"outputs": [
				{
					"internalType": "string",
					"name": "",
					"type": "string"
				}
			],
			"stateMutability": "view",
			"type": "function"
		},
		{
			"inputs": [],
			"name": "withdrawRewardTokens",
			"outputs": [],
			"stateMutability": "nonpayable",
			"type": "function"
		},
		{
			"stateMutability": "payable",
			"type": "receive"
		}
	]
}